:100000000C94EA100C9412110C9412110C9412110D
:100010000C9412110C9412110C9412110C941211D4
:100020000C9412110C9412110C9473160C94E21689
:100030000C9412110C9412110C9412110C941211B4
:100040000C9412110C9412110C9412110C941211A4
:100050000C9412110C9412110C9412110C9414198A
:100060000C9412110C9412110C9412110C94121184
:100070000C9412110C9412110C9412110C94121174
:100080000C9412110C9412110C9412110C94121164
:100090000C9412110C9412110C9412110C94121154
:1000A0000C9412110C9412110C9412110000000007
:1000B000003E5B4F5B3E3E6B4F6B3E1C3E7C3E1CEE
:1000C000183C7E3C181C577D571C1C5E7F5E1C0034
:1000D000183C1800FFE7C3E7FF0018241800FFE7EB
:1000E000DBE7FF30483A060E2629792926407F05AE
:1000F0000507407F05253F5A3CE73C5A7F3E1C1CC4
:1001000008081C1C3E7F14227F22145F5F005F5F83
:1001100006097F017F006689956A6060606060946F
:10012000A2FFA29408047E040810207E2010080874
:100130002A1C08081C2A08081E101010100C1E0C7F
:100140001E0C30383E3830060E3E0E060000000011
:100150000000005F00000007000700147F147F14F8
:10016000242A7F2A1223130864623649562050003D
:1001700008070300001C2241000041221C002A1C29
:100180007F1C2A08083E0808008070300008080814
:100190000808000060600020100804023E51494534
:1001A0003E00427F400072494949462141494D3352
:1001B0001814127F1027454545393C4A49493141B9
:1001C000211109073649494936464949291E000087
:1001D00014000000403400000008142241141414DC
:1001E0001414004122140802015909063E415D59C8
:1001F0004E7C1211127C7F494949363E41414122D1
:100200007F4141413E7F494949417F090909013EFA
:10021000414151737F0808087F00417F4100204021
:10022000413F017F081422417F404040407F021C33
:10023000027F7F0408107F3E4141413E7F0909094A
:10024000063E4151215E7F09192946264949493216
:1002500003017F01033F4040403F1F2040201F3FDC
:100260004038403F63140814630304780403615961
:10027000494D43007F4141410204081020004141A3
:10028000417F04020102044040404040000307084F
:100290000020545478407F2844443838444444284B
:1002A000384444287F385454541800087E090218F2
:1002B000A4A49C787F0804047800447D400020407A
:1002C000403D007F1028440000417F40007C0478BE
:1002D00004787C080404783844444438FC18242406
:1002E0001818242418FC7C08040408485454542486
:1002F00004043F44243C4040207C1C2040201C3C03
:100300004030403C44281028444C9090907C4464F9
:10031000544C44000836410000007700000041368C
:10032000080002010204023C2623263C1EA1A16112
:10033000123A4040207A3854545559215555794144
:100340002154547841215554784020545579400C1B
:100350001E527212395555555939545454593955FC
:100360005454580000457C410002457D420001453F
:100370007C40F0292429F0F0282528F07C545545AC
:10038000002054547C547C0A097F4932494949323F
:100390003248484832324A4848303A4141217A3A54
:1003A00042402078009DA0A07D39444444393D401E
:1003B00040403D3C24FF2424487E4943662B2FFCCB
:1003C0002F2BFF0929F620C0887E09032054547979
:1003D000410000447D413048484A32384040227A4A
:1003E000007A0A0A727D0D19317D2629292F2826C7
:1003F0002929292630484D402038080808080808CF
:100400000808382F10C8ACBA2F102834FA00007B27
:10041000000008142A142222142A1408950022002D
:1004200095AA005500AAAA55AA55AA000000FF00E7
:10043000101010FF00141414FF001010FF00FF1024
:1004400010F010F0141414FC001414F700FF000056
:10045000FF00FF1414F404FC141417101F10101FD5
:10046000101F1414141F00101010F0000000001FC3
:10047000101010101F10101010F010000000FF10CE
:100480001010101010101010FF10000000FF1400CA
:1004900000FF00FF00001F10170000FC04F41414FC
:1004A0001710171414F404F40000FF00F7141414C8
:1004B00014141414F700F7141414171410101F1048
:1004C0001F141414F4141010F010F000001F101F6B
:1004D0000000001F14000000FC140000F010F010D9
:1004E00010FF10FF141414FF141010101F00000050
:1004F00000F010FFFFFFFFFFF0F0F0F0F0FFFFFF54
:100500000000000000FFFF0F0F0F0F0F38444438AA
:10051000447C2A2A3E147E02020606027E027E02E5
:1005200063554941633844443C04407E201E200604
:10053000027E020299A5E7A5991C2A492A1C4C7241
:1005400001724C304A4D4D303048784830BC625AC8
:10055000463D3E494949007E0101017E2A2A2A2A58
:100560002A44445F444440514A444040444A514034
:100570000000FF0103E080FF000008086B6B0836F5
:1005800012362436060F090F060000181800000066
:100590001010003040FF0101001F01011E00191D55
:1005A0001712003C3C3C3C0000000000F0F89C8E20
:1005B0008783878E9CF8F00000FEFF03030303038C
:1005C000070EFCF80000FEFF0303030303070EFC05
:1005D000F80000FFFF00000000000000FFFF000027
:1005E000FEFF8383838383C7EE7C380000F8FC0E14
:1005F00007030303070EFCF800003F7FE0C0808084
:10060000C0E07F3FFFFF01010101010101FFFF0089
:1006100000FFFF0C0C0C0C1C3E77E3C100007FFFB9
:10062000C0C0C0C0C0E0703F1F00001F3F70E0C0EE
:10063000C0C0E0703F1F00007FFFC1C1C1C1C1E366
:10064000773E1C00001F3F70E0C0C0C0E0703F1F3D
:10065000000000000001FFFF01000000D5F08D1434
:10066000A1C881CFD9F1AF2000696E2061206D6FE4
:100670006D656E742E2E2E0041726475626F792046
:1006800077696C6C207265626F6F7400466C617381
:1006900068696E6720626F6F746C6F616465720069
:1006A0004661696C65642100466C617368696E67B8
:1006B00020626F6F746C6F6164657200466C617369
:1006C0006820626F6F746C6F616465720050726550
:1006D000737320202020627574746F6E20746F0015
:1006E0004D6F6463686970206E6F7420666F756EFD
:1006F000642100566572696679207375636365735A
:100700007300566572696679206661696C6564215B
:1007100000766572696679696E67204D6F64206343
:1007200068697000B0070000FFC506C673C704C63D
:1007300003C602C601C600C6FFC5FEC5FDC5FCC591
:10074000FBC5FAC5F9C5F201003A80E189BD82E135
:1007500089BD09B400FEFDCF0895CDD569F0809123
:10076000E9008F931092E900A2D483FF01C021D544
:100770008F9187708093E90008958EEF0090E100DB
:1007800008220092E1000895F201F999FECFF2BD2E
:10079000E1BD0895F9DFF89A80B508C0F5DF1FBA0A
:1007A00080BD0FB6F894FA9AF99A0FBE31962F01D0
:1007B0000895E0E0F0E0859194910196089580EE2F
:1007C0008BB98BEA34D0109289008AEF809388002D
:1007D00082E080936F0083E080938100E7E5F7E794
:1007E00085913AD0E336E1F781E08093D7008AE43F
:1007F00082BF1092D8001092E2001092DA0010929C
:10080000E10080E808D019BC1EBA1092E00065D45F
:1008100089E056D481E98093D8000895A3E6B1E039
:1008200090E81AD08D939A95E1F7089586E008D064
:1008300010C083E005D08F2F0FD08E2F0DD080E019
:100840005E9A599809C005D085E0FADF05D080FD91
:10085000FDCF599A5E9808958EBD8DB587FFFDCF67
:100860008EB508958FE08221E9F7F3DFE3E6F6E045
:1008700090EB5C98892FF0DF80E1EEDF5C9A81914C
:10088000EBDF83E68E278F77D1F79395983B89F737
:100890000895E3E6F1E097FC38C094FC4FC092FE67
:1008A00008958684882011F4992459C0F894C08949
:1008B000D78520E030E080E090E4AFEFBFEF119605
:1008C00088199040E0F72D01BD4F8D0127FD13C021
:1008D000E0E0F8E011928EE7819392E4E1179193C2
:1008E0009AE508F092E4E334C9F781931082BDDF02
:1008F000FE0121969EDF92DFF90100D520583F4F7F
:10090000040D151D8A9411F713C28301282D6090E0
:100910006C0170906B0141D019F48823C1F70895E0
:10092000380188243AD0B9F580916A01821709F418
:10093000830160906E0170906D01F4CF60906E0144
:1009400070906D012AD059F48823C1F708959FEF64
:1009500095FC03C096FE089591E097FB890E6624EE
:1009600077248301222719D0B1F48823A1F3809141
:100970006A0136F0881650F4821730F0213003C037
:10098000881520F4281710F48301282F60906E0139
:1009900070906D01E8CF3801822EF3014ADF3EDF0F
:1009A000C3E6D1E0E0E5F7E709908591081621F468
:1009B000E735D1F7088080104CCFC9E031DFCA9508
:1009C000E9F7D0E195FC1EC097FC53C094FC35C0FC
:1009D000C3E6D2E0E3E6F6E098E088E78E0F008415
:1009E0000192E817E1F7884F09900192E817E1F7C3
:1009F000C858DF4F9A9589F735DFC85FD340C33EAB
:100A000049F749C0C3E6D6E0EBE5FAE098E08E2F5F
:100A1000885702900086E817E1F738960A9002920C
:100A2000E817E1F73897C857D0409A9581F71ADF51
:100A3000C850DC4FC33E41F72EC0A3EEB6E0E3E65C
:100A4000F6E09AE0C6E00D9080818025807F8025C9
:100A500082958193A336B90709F4B2E0E336F9072A
:100A600009F4F2E0E336FC0771F7FCDEDA9529F7CA
:100A700012C0A3EEB9E0E3E6FAE092E00E908291B4
:100A800080258F70802582958083E336F907B1F742
:100A9000E9DEDA9571F78827089541524455424FAF
:100AA00059D5F08D14A1C881CFD9F1AF000000FF56
:100AB000FFCFCFFFFFFFFFCFCFFFFF0000FE067E7F
:100AC0007E06FE46565616FE0656461EFE3F61E957
:100AD000E3FFE3EBE3FFE3EBE3FFE16B3F00120136
:100AE000100102000008412336000100000000014F
:100AF00009023E00020100803209040000010202E6
:100B0000010005240010010424020405240600014C
:100B1000070582030800FF09040100020A00000023
:100B20000705040210000107058302100001F50308
:100B3000003C11241FBE04B714BE88E180936000FE
:100B4000109260008EEF9AE09EBF8DBF2224332466
:100B500021013101410180E88AC00F928F939F9358
:100B60001F920FB60F9211244F936F938091DA006A
:100B700080FF37C023C00F920FB68F939F93EF93E0
:100B8000FF9388278093850080938400E0E5F1E05F
:100B90009281907261F490818917980B908309F487
:100BA0005D9A91818917980B918309F4289A23946F
:100BB00011F48315381EFF91EF9154C08091D80035
:100BC00080FF0FC08091DA008E7F8093DA008091E1
:100BD000D90080FF04C0ADDD81E08EBB02C019BC2E
:100BE0001EBA8091E10080FF0BC058D280FF08C080
:100BF00058D28091D800806202DE19BC85E08EBB9D
:100C00008091E10084FF1AC049D284FF17C091DDB2
:100C10008091D8008F7DF3DD8FEEA4DD3FD28F7EF3
:100C2000816042D280915301882331F48091E300A6
:100C300087FD02C081E001C084E08EBB8091E100AD
:100C400083FF0CC02BD283FF09C087EF8BDD82E0CE
:100C50008EBB1092530185DD24D233D26F914F9118
:100C60000F901F909F918F910FBE0F9018958093BA
:100C7000610010926100B1E0B5BF82E085BF81EFF5
:100C800085B987EE84B91DB8769A10BA80EF81BB1A
:100C900082E68BB982EF8AB980E58CBDBDBDA0E04C
:100CA000E4E9F7E705900D92A035E1F71D92BB301E
:100CB000E9F701FD09C000FF07C07C9B05C05EDDB0
:100CC000882312F06ADD41F56EDD78945ADE71F00A
:100CD000ABE9B7E0E3E6F7E790E105900D929A956E
:100CE000E1F7A059BF4FE339B9F7B4DD52D029DDA0
:100CF00080915201807861F48FB18095807F6699F0
:100D00001C9B8460982E17DE8110B7DD92FC02C018
:100D1000332062F742DD51F3F89489EB7CDD81E00A
:100D20008093E00010926F00109281001092850075
:100D30001092840081E085BF15BE2E9A2F9A2D9ABD
:100D40005D9A289A0C940000A4D107C057D102C024
:100D5000C6D239F0A0D182FFFBCF85FFF7CF8091BB
:100D6000F1000895082E83E095D185FD07C08AD152
:100D700002C0B5D269F08FD180FFFBCF0092F100A5
:100D800080915201807221F45D9884E68093500135
:100D900008957FD182FF34C180915201807221F485
:100DA000289884E680935101CFDF182F853431F4E1
:100DB00022248EE7382EDCDC8DE00BC1843511F463
:100DC000C3DFFACF8C34C1F38035B1F3843721F41B
:100DD00084E4C8DF80E0FDC0813611F489E5F9C004
:100DE000813429F4B1DF582EAFDF482EE5CF8037AC
:100DF00011F483E5EEC0833539F4E0E5F7E785913A
:100E0000B1DFE735E1F7E6C0863521F481E3AADFFB
:100E100087E3DFC0863761F481E3669B8E5F1C9BAE
:100E20008F5FA0DF8FB1809582958F708F5BD1C06F
:100E30008837A9F489DF80935201289A84FD289885
:100E40005D9A83FD5D982E9A81FD2E982F9A82FDE2
:100E50002F982D9A80FD2D9887FD8824ADCF8A3656
:100E600049F48FE9E1DCC3E0EBDC7CDFCA95E1F714
:100E7000E4DCB0C0833731F487E874DF85E972DFE2
:100E80008EE1A7C0853639F4E0E8F3E73ED2E058BA
:100E9000F040E0F791CF823631F489E563DF80E0FE
:100EA00061DF80E896C0823419F0873609F07DC092
:100EB00033244ADFD82F48DFC82F46DF082F83545A
:100EC000843008F085C0063411F4440C551CF2013E
:100ED00010926F001736B9F4033489F483E09EDC76
:100EE000AFDC8EB51EBC3EDF0DB42197D1F7A5DC7B
:100EF00008C0063411F4859101C040DC33DF21972E
:100F0000C2F72F014AC00334A9F4E11104C082DC06
:100F100088ED84DC8CDC7EDC82E080DC15DF0DB4C7
:100F20008EBDCA95D9F731968CDC81DCDA9569F7EC
:100F30002F0131C00634F1F49F01F437D8F4E5D124
:100F400019C002DF063461F4C0FB46F0F43728F420
:100F5000182E81E087BFE89511243296082E0AC02A
:100F6000043439F4DF01B370AD59B94F8D93319624
:100F700001C008DC21972AF7043431F42F01F37003
:100F8000FE2B49F467DC07C0063429F42F01F90170
:100F9000F43708F4B8D18DE0E5DE063411F4569448
:100FA000479482E080936F0015C08237E1E049F0FA
:100FB0008634E0E031F08E34E3E019F0813531F42D
:100FC000E2E0F0E089E087BF849103C08B3111F04B
:100FD0008FE3C8DE83E0C2DB55D095FF03C009C0B4
:100FE0007ED171F058D080FFFBCF4CD002C077D1BA
:100FF00039F051D080FFFBCF84E0B0DB8BE743C0FA
:101000000895E4E5F1E067E090915B0180915C0177
:10101000913231F0913AE1F58132D1F55ED181C062
:10102000823271F48191805B8191844089F5809155
:101030005D0180FD2DC0F89481E08093E00079CDC2
:10104000803231F54AD14BD1E9F08530D9F023D047
:1010500083FD18C082FFF7CF04C081DE8193615009
:1010600031F09091F3008091F200892BB1F7C6DF47
:10107000611549F704C033D129F0853019F00BD040
:1010800080FFF9CF8EE79091E80089238093E800F4
:10109000089584E063DB8091E80008958091E20088
:1010A0000895FCDF8E7F80618093E200089582E0E6
:1010B00061EC09D083E061E802D084E060E842E1BD
:1010C00003C080E060E042E049DB81E007D010929D
:1010D000ED006093EC004093ED0008959091EB00DB
:1010E000892B8093EB00089560E0923029F09130D5
:1010F00029F4E0E062E102C0E2E16EE3F1E008958C
:1011000080915B0188234CF402C0E9D0C1F3C3DFB6
:1011100082FFFBCF73CFE3D091F3BDDF80FFFBCF26
:10112000B1CF40916101509162014617510520F005
:10113000462F611509F4A6DF50E022C0D0D061F13E
:10114000853051F1A8DF83FD59CFA5DF82FD21C095
:1011500080FF16C03091F3002091F20006C081910B
:101160008093F10041502F5F3F4F411519F0283017
:101170003105A8F350E02830310509F451E082DF51
:101180004115E1F65523D1F604C0A9D029F08530E8
:1011900019F081DF82FFF9CF31CFEBE5F1E0DFDD40
:1011A0008193E336E1F72DDF76DF83FF91C08091F5
:1011B0005B0190915C01913009F170F09330F1F096
:1011C000953009F444C0963009F456C0983009F4BB
:1011D00060C0993059F767C0823841F780915F014C
:1011E000BCDA2091EB001092E90077D02295269589
:1011F00021702093F1001092F10052C0882311F069
:101200008230A1F68F71823089F680915D0188234A
:10121000D1F420915F01277049F22093E900809179
:10122000EB0080FF10C0933011F480E20BC080E12E
:1012300055DF81E0880F2A95E9F78093EA00109244
:10124000EA0088E04BDF1092E90047D02AC08823EB
:1012500091F410915D0110680FB7F8943ED050DF03
:101260001ADF80FFFDCF1093E300103883E009F40C
:1012700082E08EBB0FBF2CC08058823048F5809131
:101280005D0190915E0130DF603011F126D049DFC1
:101290001FC08038E9F421D0809153018093F10080
:1012A000F1DE2EDF15C0882399F490915D01923014
:1012B00078F49093530111D023DF80915301882358
:1012C00021F48091E30091E087FD94E09EBBEFDE86
:1012D000E2DE83FF089580E201DF87EFD4CE8EB394
:1012E00088230895A3E6B1E0F437B8F40ED090E473
:1012F0000D901D9081E087BFE89532969A95C1F7D1
:101300001124E058F04085E001C083E001D081E184
:1013100087BFE89507B600FCFDCF08950300FD3FA9
:101320003137DCCFFBDC000011241FBECFE5D1E05C
:10133000DEBFCDBF70D1A6C1F7C990E09AEF000023
:101340009A95E9F78A95D1F7089588B38A7F88BB83
:1013500087B38A7F87BBBC98089598E087FF09C050
:10136000C09A880FC29AB1998F5FC2989150B1F715
:101370000895C098F6CF1F93CF93DF93D82F162FE1
:10138000892FEBDF8D2FE9DF80E0E7DFC82F812F8A
:10139000E4DFD33509F0C82F8C2FDF91CF911F9157
:1013A000089560E088E090E5E6CF60E088E098E5A9
:1013B000E2CF60E080E090E5DECFCF93DF93EC01F9
:1013C0008CE4CBDF8D2FC9DF8C2FC7DF80E0C5DF3A
:1013D00060E080E090EFCFDF80FDFACFDF91CF912A
:1013E0000895CF9388B38A7F88BB87B3856087BB16
:1013F000CAE0C49ABC9A81E0A0DFC49884E19DDF72
:1014000060E083E59CEAB7DF833529F0C15089F7B6
:101410009CDF80E001C081E0CF910895CF93ABDFE6
:10142000C82F60E080E090EFA6DF80FDFACF8C2F20
:10143000CF9108955F926F927F928F929F92AF9219
:10144000BF92CF92DF92EF92FF920F931F93CF93B1
:10145000DF9360E080E098E58EDF806CC0E08F3F36
:1014600029F060E080E89CEAD9DFC1E085E496E0FD
:101470008F3F910521F06FEF80EA9CEACFDF81E496
:1014800096E0823D910521F062ED88EA9CEAC6DF94
:101490008DE396E08B3C910521F06BEC84EA9CEAAD
:1014A000BDDFC11104C060E080E89CEAB7DF2EE137
:1014B000C22E20E0D22EF60184910FE110E0F80157
:1014C000A490BA2CA82E30E4732EC0E2D0E048E0FD
:1014D000642EA114B10409F43CC0FE0184917E0184
:1014E000F2E0EF0EF11C2196FE01C491DC2FC82F13
:1014F000572C872D32DF8D2F30DF8C2F2EDF4701C9
:10150000FFEF8F1A9F0AF701849127DF73FE07C050
:10151000CE018F739927CF9711F4CE014EDF762439
:1015200053FE15C02196F1E0AF1AB10881F4CE0147
:101530008F739927892B11F0CE013FDFF401A4901E
:10154000E7012396F70132968491B82EC2CF740139
:10155000CFCFF601C490F8010491102F0C2D80E23A
:10156000D82EC0E2D0E098E0C92E0115110561F136
:10157000FE0184917E01F2E0EF0EF11C2196FE0146
:10158000C491DC2FC82FBD2C8D2DE7DE8D2FE5DE1D
:101590008C2FE3DE80E0E1DE97012F5F3F4FF70104
:1015A0009491891324C0DC24B3FE0CC02196015011
:1015B000110941F4F9010491E701239631968491D0
:1015C000182FD3CF7901DFCFE199FECF1FBA1EBA12
:1015D000E09A8DB3813B59F0982F917B913BB9F400
:1015E0009EE4892790E29CBB8DBBE29AE19ADF9151
:1015F000CF911F910F91FF90EF90DF90CF90BF9010
:10160000AF909F908F907F906F905F909ECE90E074
:1016100081EBE9CF189517BA88E088BB15BE8FE03B
:1016200080BDE199FECF1FBA1EBAE09A8DB38B3F01
:1016300029F484E182DED5DE8111FCDE00E180E266
:10164000F82E90E3E92E05BBFBBEE5BE78948895A5
:1016500015BE1BBED0E0C0E010E081E0B49906C02A
:101660006CDECF3FDC07C1F32196F6CF66DE1F5F4D
:10167000143198F3C03DD74030F3B3DE882319F31B
:10168000D9DEE1CFF894FFCF0000466C6173686942
:101690006E67204D6F64206368697000466C6173EB
:1016A00068204D6F642063686970005072657373C1
:1016B00020202020627574746F6E20746F00544F68
:1016C00020444F004841524457415245204445541C
:1016D00041494C5300466C6173682063686970200F
:1016E0006E6F7420666F756E642100204B4200534C
:1016F000697A653A004A454445432049443A0046E0
:101700004C41534820434849502044455441494C9A
:1017100053004D6F6463686970206E6F7420666F4C
:10172000756E6421004669726D776172652043525F
:10173000433A00204C6F636B3A2000456675736531
:101740003A002048667573653A004C667573653AD1
:1017500000204545503A004D4F4420434849502011
:1017600044455441494C5300207600426F6F744306
:1017700052433A00204C6F636B3A20004866757301
:10178000653A002045667573653A004C6675736569
:101790003A004F4646004F4E00506F7765722D6FEE
:1017A0006E206D656E753A0070FCFA3A4D754D3AD3
:1017B000FAFC700001030207070702030100F8A802
:1017C000B8E000F848F800F8888800F830C8000051
:1017D00070FCFA0AD5D5CD3AFAFC70000000000082
:1017E00000000000000000000000000000000103F5
:1017F0000206060603030100008080808080002A24
:1018000041800180412A00808080808000000000AB
:1018100000000000000000000000000000000000C8
:101820000000000000001F3F3E3E3E3D1B8E442056
:101830001120448E1F3F3E3E3E311F000017151DF4
:10184000001F1511001F1010001F1511001F11118E
:1018500000011F01000000000000000A100010003D
:10186000100A00000000000000000000000000005E
:101870000000000000000000000000000000000068
:10188000000041524455424F592044455441494C6F
:101890005300E0F8F4749AEA9A74F4F8E000005403
:1018A000AA01020102010201020102010201020178
:1018B0000201020102010201020102010201020110
:1018C0000201020102010201020102010201020100
:1018D00002010201020102010201020102010201F0
:1018E00002010201020102010201020102010201E0
:1018F0000201AA54000307040E0E0E0407030000A1
:1019000000050A1008100810081008100810081028
:101910000810081008100810081008100810081007
:1019200008100810081008100810081008100810F7
:1019300008100810081008100810081008100810E7
:1019400008100810081008100810081008100810D7
:10195000081008100A050000000000000000000048
:101960000000000000000000000000000000000077
:1019700000000000000000F80808F00008F8080067
:10198000F04848F000F00848D000F830C0F800F007
:101990000808F00030484890000808F808080008D7
:1019A000F80800F00808100000000008F80800F827
:1019B00030C0F800F848480800F00808F0000000BF
:1019C0000000000000000000000000000000000017
:1019D0000000000000000000000000000000000007
:1019E00000000000000000000000000000000000F7
:1019F00000000000000000C342424100C203020098
:101A00000380404380018242418003C00003C00143
:101A1000020201C0810282C1008040438000C042B6
:101A20004382000102028140408000C20302C003E1
:101A300040C04300C340408000010202010000009A
:101A40000000000000000000000000000000000096
:101A50000000000000000000000000000000000086
:101A60000000000000000000000000000000000076
:101A7000000000000000001F020200001F101010F4
:101A8000001F02021F000912120C001F02021F0099
:101A90000000001F0103011F000F10100F001F1096
:101AA000100F000000000F101008001F02021F009E
:101AB000101F10001F0404030000000000000000BD
:101AC0000000000000000000000000000000000016
:101AD0000000000000000000000000000000000006
:101AE00000000000000000000000000000000000F6
:101AF00000000000000000FE12120200FE80808044
:101B000000FC1212FC004C92926400FE1010FE00C9
:101B1000000000FE92926C007C82827C007C8282BB
:101B20007C000202FE020200FE808080007C828235
:101B30007C00FC2222FC00FE82827C00FE929282CB
:101B400000FE22629C000000000000000000000077
:101B50000000000000000000000000000000000085
:101B60000000000000000000000000000000000075
:101B700000000000000000F090901000F000000055
:101B800000E09090E0006090902000F08080F000F5
:101B9000000000E01010E000F000000000F0000085
:101BA0000000000000000000000000000000000035
:101BB0000000000000000000000000000000000025
:101BC0000000000000000000000000000000000015
:101BD00000000000000000000000000000F0F8E835
:101BE000E8E818F00000000000000000000000001D
:101BF00000000000000000070000000007040404CB
:101C000000070000070002040403000700000700AB
:101C10000000000701010700070404040007040492
:101C200004000000000000000000000000000000B0
:101C300000000000000000000000000000000000A4
:101C40000000000000000000000000000000000094
:101C5000000000000000A8040004000488512307CD
:101C60008F072351880400040004A80000B8A8E8E6
:101C700000F8A88800F8808000F8A88800F8888814
:101C80000008F8080000000000000000000000004C
:101C90000000000000000000000000000000000044
:101CA0000000000000000000000000000000000034
:101CB000000000000000000000F8A8B8E000F848AC
:101CC000F800F8888800F830C8000070FCFA0AD5DF
:101CD000D5CD3AFAFC70000100010001007CFEFF46
:101CE000FDFBC67C000100010001000000000000B7
:101CF00000000000000000000000000000000000E4
:101D000000000000000000000000000000000000D3
:101D100000000000000000000000000000000000C3
:101D200000000000000000000000000000000000B3
:101D300000000000000000000000000000000000A3
:101D40000000000000000000000000000103020687
:101D50000606030301004163361C1C366341040C74
:101D600038703C0E030100000000000000F0F89CF9
:101D70008E8783878E9CF8F00000FEFF0303030329
:101D800003070EFCF80000FEFF0303030303070E26
:101D9000FCF80000FFFF00000000000000FFFF0053
:101DA00000FEFF8383838383C7EE7C380000F8FC4A
:101DB0000E07030303070EFCF800003F7FE0C0801E
:101DC00080C0E07F3F000018DCFCFCFEDECEC74791
:101DD00067637BBBF3E0E0E0F0783C3E1E0F070258
:101DE00000000000000000000000000000FFFF01F4
:101DF000010101010101FFFF0000FFFF0C0C0C0CB1
:101E00001C3E77E3C100007FFFC0C0C0C0C0E070CF
:101E10003F1F00001F3F70E0C0C0C0E0703F1F00C8
:101E2000007FFFC1C1C1C1C1E3773E1C00001F3F5D
:101E300070E0C0C0C0E0703F1F000000000001FF64
:101E4000FF01000000001C1F070101010000000449
:101E50000606070303010103030306060200000050
:101E60000000000000000000000000000000000072
:101E70000000000000000000000000000000000062
:101E800000000000000050A804C8E42824E8C408AA
:101E9000C4E824286448042824E8E4282408E4E862
:101EA00004E8E40804E8E408C4E82428E4C80428B2
:101EB00024E8E4282408C4E82428E4C804E8E42842
:101EC00024E8C40804A8500000000000000000003E
:101ED0000000000000000000000000000000000002
:101EE00000000000000000000000000000000000F2
:101EF00000000000000000000000000000000000E2
:101F0000000000000000152A402F4F23432F4F20D0
:101F1000472F48284C244020402F4F2040204F2F4F
:101F20004023472C4C2743204F2F42224F2F402045
:101F3000402F4F204020472F48284F27402F4F2227
:101F4000422F4D20402A1500000000000000000034
:101F50000000000000000000000000000000000081
:101F60000000000000000000000000000000000071
:101F70000000000000000000000000000000000061
:101F80000000000000000000000000000000000051
:101F9000000000000000000000007050D00010F0B1
:101FA0001000F050F00010F01000F000F000705041
:101FB000D000A000000000000000000000000000B1
:101FC0000000000000000000000000000000000011
:101FD0000000000000000000000000000000000001
:101FE00000000000000000000000000000000000F1
:101FF00000000000000000000000000000000000E1
:10200000000000000000000000000000000000F8D8
:10201000306030F800F0080808F001F90908F00114
:102020000000F108091000F94040F90109F8090120
:10203000F988887000000000000000000000000027
:102040000000000000000000000000000000000090
:1020500000000000C040C040C000C0404000C08040
:1020600000C000C000C00000000000000000000030
:102070000000000000000000000000000000000060
:102080000000000000000000000000E0202020030D
:10209000E000000300C12222C201C023224201E06D
:1020A0000000E1020201C023204003E00203E2003D
:1020B00023E02000E02020C000000000000000001D
:1020C0000000000000000000000000000000000010
:1020D000000000000700010007804745A4A0A740BA
:1020E0004187000704070000000000000000000016
:1020F00000000000000000000000000000000000E0
:1021000000000000000000000000000F01010000BE
:102110000F080808000F01010F0004090906000F4D
:1021200001010F00000007080804000F01010F0063
:10213000080F08000F02020100000000000000006C
:10214000000000000000000000000000000000008F
:1021500000000000000000000E3F7F47E9EEE94765
:102160007F3F0E000000080B00020202000009047D
:1021700000000102020000052400100105240101F5
:10218000010424020605240600010705810310004E
:102190004009040100020A00000007050202400095
:1021A0000007058302400000040309041201000235
:1021B000EF02014041233680000101020301417218
:1021C0006475696E6F204C4C430041726475626F98
:1021D0007900D61911241FBECFEFDAE0DEBFCDBFE4
:1021E00011E0A0E0B1E0E0E3F3E402C005900D925D
:1021F000A034B107D9F725E0A0E4B1E001C01D92F9
:10220000A13DB207E1F710E1CAEED0E104C0219789
:10221000FE010E948B21C93ED107C9F70E94071A0F
:102220000C9496210C9400009091C405982329F4F5
:102230009091C305982381E009F480E008954F92BE
:102240005F926F927F928F929F92AF92BF92CF9246
:10225000DF92EF92FF920F931F93CF93DF93802E25
:10226000912CF401E60FF71F1E161F060CF06BC031
:10227000603471050CF067C030E0E62FE7707E2E09
:10228000E3E095948794EA95E1F7F3E07595679517
:10229000FA95E1F7062E000C770BDB01B695BA2F05
:1022A000AA27B795A795A80FB91FA659BE4FEA014F
:1022B00050E040E0E0E8F0E07F01E81AF90A8A0126
:1022C000060F171F083011050CF03DC00F3FFFEF40
:1022D0001F077CF190E080E05D01E0E8AE0EB11CEC
:1022E000FC01EC0FFD1FE491F0E02F01072C02C070
:1022F000440C551C0A94E2F70F3F1007A9F16D0139
:10230000C80ED91EF601608064286082772051F0E3
:102310000730110539F06501C80ED91EF60160803D
:10232000652860820196821793071CF4E816F90667
:10233000B9F64F5F5F4FA058BF4FC20FD31F84162F
:10234000950609F0BCCFDF91CF911F910F91FF90BF
:10235000EF90DF90CF90BF90AF909F908F907F9045
:102360006F905F904F9008957110D5CFDBCF90E0C4
:10237000EAE6F1E091119FEF8FEF919391939193A2
:1023800091938150D0F70895EAE6F1E0A0E0B8E03B
:1023900000800EBC8111012C1197A0FDFDCF019290
:1023A000B9F70DB40895FC0180916901882311F1FA
:1023B0003FB7F89482E08093E9002091F200822FE9
:1023C00090E01816190614F481E090E0882339F0A3
:1023D000289844E6409368014091F100408322230D
:1023E00039F02091F200211103C02BE62093E80080
:1023F0003FBF08958FEF9FEF08952FB7F89483E0C4
:102400008093E9009091E800892F807295FF04C0C5
:102410009091F20080E4891B2FBF089580916001A4
:1024200081110DC082E080935C0184E080935D01A6
:1024300010925F0110925E0181E0809360018CE553
:1024400091E00895CF93DF931F92CDB7DEB76983F4
:10245000DC01ED91FC910280F381E02D41E050E040
:10246000BE016F5F7F4F09950F90DF91CF91089567
:1024700083E08093E9008091F200882319F08AE3D9
:102480008093E80008950E94FD1190E00895CF9395
:10249000DF931F92CDB7DEB7FC018485958597FD4C
:1024A00008C02FEF3FEF358724870F90DF91CF9142
:1024B0000895CE0101960E94D311019719F48981E4
:1024C00090E0F3CF8FEF9FEFF0CF0F931F93CF9359
:1024D000DF931F92CDB7DEB78C01FC018485958513
:1024E00097FF0BC0CE0101960E94D311019771F4A2
:1024F000898190E0F80195878487F8018485958526
:102500000F90DF91CF911F910F9108958FEF9FEF63
:10251000F1CFFC018485958597FD0BC09FB7F8949A
:1025200082E08093E9008091F2009FBF90E00196E5
:1025300008959FB7F89482E08093E9008091F200BB
:102540009FBF90E00895409156015091570120910E
:1025500054013091550142175307B4F49091E800AB
:102560009570E1F39091E80092FD19C08093F1001D
:10257000809156019091570101968F739927892B6D
:1025800019F48EEF8093E8008091560190915701E5
:102590000196909357018093560181E0089580E061
:1025A0000895DF92EF92FF920F931F93CF93DF93E3
:1025B000D82E8A01EB017B01E40EF51ECE15DF0556
:1025C00059F0D7FE12C0FE0184910E94A3122196F9
:1025D0008111F4CF0FEF1FEFC801DF91CF911F9151
:1025E0000F91FF90EF90DF9008958881EECF0F93C9
:1025F0001F93CF93DF931F92CDB7DEB782E089831D
:1026000042E450E066E671E280E80E94D1120E9446
:102610000E12DC0112960D911C910115110589F025
:10262000D801ED91FC910280F381E02DBE016F5F36
:102630007F4FC801099597FD04C0F80100851185F9
:10264000ECCF89810F90DF91CF911F910F91089569
:10265000615030F02091F100FC0120830196F8CF09
:10266000289884E6809368010895AF92BF92CF9234
:10267000DF92EF92FF920F931F93CF93DF936C0142
:102680007B018B01040F151FEB015E01AE18BF0823
:10269000C017D10759F06991D601ED91FC910190D5
:1026A000F081E02DC6010995892B79F7C501DF91ED
:1026B000CF911F910F91FF90EF90DF90CF90BF903F
:1026C000AF9008952D9A08958FB18095807F669B75
:1026D00088601C9B846008958EBD00000DB407FEC9
:1026E000FDCF8EB508952F923F924F925F926F92D9
:1026F0007F928F929F92AF92BF92CF92DF92EF9292
:10270000FF920F931F93CF93DF9300D000D01F92BF
:10271000CDB7DEB79C838B836A3059F5DC015596C3
:102720008C91B8E08B9F90011124EB81FC81818911
:102730009289820F931F928B818B108A178681E07A
:1027400090E00F900F900F900F900F90DF91CF912E
:102750001F910F91FF90EF90DF90CF90BF90AF90BF
:102760009F908F907F906F905F904F903F902F90B1
:1027700008956D3021F3AB81BC811F968D919C91A2
:102780005097803891050CF087C05196CD90DC9021
:10279000B0E4CB16D1040CF07FC0EB81FC819588AE
:1027A000E5E09C019E9E200D311D1124121613069A
:1027B0000CF072C0E92CF12C9701B3E0220F331F0B
:1027C000BA95E1F72C0D3D1D121613060CF064C0EE
:1027D000AB81BC8154965C90549753964C906E9FFD
:1027E000F0011124E455FF4F70E02491753009F495
:1027F00020E05601A8E06A2E222E312C642D20FF05
:10280000652D611103C0541409F437C0AC01617027
:102810006A834983242F281B291578F510E000E0EE
:10282000091540F54038510510F598012A0D3B1D5A
:1028300020343105E0F460E1762E898061E021FDED
:1028400064E020FD660F22FD6295287F729ED00114
:102850001124A80D6D83A659BE4F2C913A81862E66
:10286000822A311103C08D80809482228C920F5F66
:102870001F4FD6CF4F5F5F4FCCCF91013595279536
:102880006A94AE0CBF1C6110B7CF7F5F31968E0D7E
:102890009F1D763009F0A9CFAB81BC8155962C9154
:1028A0005597422F50E01F968D919C91B6E02B9F3B
:1028B000800D911D1124EB81FC81908B87872689E7
:1028C000222309F43CCF6AEF64039001659F300D29
:1028D000112420583F4F281739070CF030CFCF0173
:1028E0000190F081E02D0190F081E02D6AE00995E2
:1028F00026CF0F931F93CF93DF938C01D0E0C0E0DE
:10290000F801EC0FFD1F6491662341F08AEB95E01E
:102910000E947313892B11F02196F2CFCE01DF9123
:10292000CF911F910F910895682F8AEB95E00C9439
:1029300073130895089590E080E008959FB7F89488
:1029400029E027BFE82FF0E084919FBF08955998B0
:102950008BEA0E946C13599A59988FE90E946C1364
:1029600080E00E946C1380934C0180E00E946C1305
:1029700080934D0180E00E946C1380934E01599A20
:1029800081E090914C019F3E09F080E008955098BD
:10299000809146018CBD809145018DBD0895282F01
:1029A0009EBD0DB407FEFDCF2EBD0DB407FEFDCFBD
:1029B00080E0903311F4862F60E08EBD0DB407FEE9
:1029C000FDCF8EB56EBD0DB407FEFDCF233509F0EA
:1029D0008EB5089560E00C94CF142CE42EBD0DB498
:1029E00007FEFDCF9EBD0DB407FEFDCF8EBD0DB41D
:1029F00007FEFDCF1EBC0DB407FEFDCF80E090EFBB
:102A00000E94EA1480FDFACF08953FB7F8948091B0
:102A1000410190914201A0914301B091440126B53A
:102A2000A89B05C02F3F19F00196A11DB11D3FBF06
:102A3000BA2FA92F982F8827BC01CD01620F711DD5
:102A4000811D911D42E0660F771F881F991F4A95CF
:102A5000D1F708958F929F92AF92BF92CF92DF925B
:102A6000EF92FF926B017C010E9405154B015C0106
:102A7000C114D104E104F104B9F00E9405156819EC
:102A800079098A099B09683E73408105910580F3A5
:102A900081E0C81AD108E108F10828EE820E23E08F
:102AA000921EA11CB11CE4CFFF90EF90DF90CF905D
:102AB000BF90AF909F908F9008958F929F92AF920A
:102AC000BF92CF92DF92EF92FF920F931F93CF931B
:102AD000DF936C017B018A0180910B01882309F44B
:102AE0005CC080916901882309F457C080915B0123
:102AF00080FF05C08091E00082608093E000E801E3
:102B0000B12C8AEFA82E93E0892E2AE3922E2097EB
:102B100011F4BB20D9F10E94FD1181110AC0AA94C1
:102B2000AA20D9F161E070E080E090E00E942A15CF
:102B3000EECF8C171D0611F00CF08C2F9FB7F89478
:102B40008092E9002091E80025FD02C09FBFDFCF01
:102B5000282F30E0C21BD30BF701815020F04191A8
:102B60004093F100FACFE20EF31EBB2021F09092C9
:102B7000E800B12CEBCF8091E80085FDE7CF909283
:102B8000E800BB24B394209709F3F3CF5D9884E663
:102B900080935A01101611063CF081E090E0F60196
:102BA0009383828310E000E0C801DF91CF911F91F1
:102BB0000F91FF90EF90DF90CF90BF90AF909F90DC
:102BC0008F900895BC0190E080E00C942A15CF937B
:102BD0008CB58093460183E58CBD8DB5809345010E
:102BE00081E08DBDCAE0589A509A81E090E00E9441
:102BF000E215589884E190E00E94E21583E59CEA92
:102C00000E94EA14833531F0C15069F70E94C7145D
:102C100080E001C081E0CF9108958F929F92AF92A2
:102C2000BF920F931F93CF93DF93CDB7DEB7A197DA
:102C30000FB6F894DEBF0FBECDBF19A2423008F424
:102C40004AE08E010F5D1F4F842E912CB12CA12CD8
:102C5000A50194010E946921E62FB901CA01EA3059
:102C600044F5E05DD801EE938D01232B242B252B19
:102C700079F790E080E0109769F0FD010190002065
:102C8000E9F73197AF014A1B5B0BBD018AEB95E079
:102C90000E943513A1960FB6F894DEBF0FBECDBFCC
:102CA000DF91CF911F910F91BF90AF909F908F9028
:102CB0000895E95CD7CF0C945321CF93C82F80316E
:102CC00040F441E050E069E371E08AEB95E00E9456
:102CD00035136C2F70E090E080E040E1CF910C94D0
:102CE0000D160E9491211F920F920FB60F92112480
:102CF0008F939F938091E1009091E100937F909357
:102D0000E10083FF0FC01092E90091E09093EB0087
:102D10001092EC0092E39093ED001092690198E01C
:102D20009093F00082FF22C093E09093E90090918D
:102D3000F200992319F09AE39093E80090915A01D8
:102D4000992341F090915A01915090935A01911119
:102D500001C05D9A90916801992341F090916801BA
:102D6000915090936801911101C0289A84FF18C076
:102D70008091E2008E7E81608093E2008091E1008C
:102D80008F7E8093E10080915B018E7E80618093D5
:102D90005B019F918F910F900FBE0F901F90189520
:102DA00080FFF7CF8091E2008E7E80618093E20009
:102DB0008091E1008E7E8093E10080915B018E7EA8
:102DC0008160E5CF1F920F920FB60F921124CF9220
:102DD000DF92EF92FF920F931F932F933F934F93A6
:102DE0005F936F937F938F939F93AF93BF93EF9373
:102DF000FF93CF93DF93CDB7DEB76C97DEBFCDBF28
:102E00001092E9008091E80083FF25C068E0CE01C0
:102E100045960E94281382EF8093E8008D8987FFF2
:102E200039C09091E80090FFFCCF982F907609F080
:102E300034C19E894F89588D2F89F88C911131C0EA
:102E4000803861F5809159018093F1001092F10072
:102E50008EEF8093E8006C960FB6F894DEBF0FBE3D
:102E6000CDBFDF91CF91FF91EF91BF91AF919F9136
:102E70008F917F916F915F914F913F912F911F9112
:102E80000F91FF90EF90DF90CF900F900FBE0F90BB
:102E90001F9018959EEF9093E800C7CF1092F10015
:102EA000D5CF913059F48111D3CF4130510581F6FE
:102EB000809159018D7F80935901CACF933049F495
:102EC0008111C6CF4130510519F6809159018260B8
:102ED000F2CF953041F48091E80080FFFCCF20686C
:102EE0002093E300B5CF963009F0A9C00B8D1C8D5F
:102EF00022E01092E9001092570110925601F2124E
:102F00002EC010925501109254010E94F7121F8298
:102F100099E09983FA8291E09E8390EA98879AEFEC
:102F200099872091560130915701275F3F4F3C838D
:102F30002B838D831092E900109257011092560155
:102F4000109355010093540149E050E0BE016F5FBA
:102F50007F4F80E00E94D1120E94F71279CF109328
:102F60005501009354010E940E12DC0112960D913E
:102F70001C910115110509F451C1D801ED91FC9185
:102F80000480F581E02DBE016B5E7F4FC80109957D
:102F9000009709F03EC1F80100851185EACFF3E002
:102FA000FF120EC08F89882309F440C0823061F47B
:102FB00040E867E08AEC91E20E945E19811148CFF7
:102FC00081E28093EB0047CF813029F440E86BE049
:102FD0008EEB91E2F1CF833099F70E940E12DC0163
:102FE0001296ED90FC908E010F5F1F4F6801E11467
:102FF000F10479F0D701ED91FC910680F781E02D85
:10300000B801C7010995080F111DF701E084F1848B
:10301000EECFD8011C92F60101900020E9F731971C
:10302000BF016C197D0940E0C601C6CF68EA71E2B4
:10303000FB01449150E080E80E94D11209CF973003
:1030400009F4BECF983021F481E08093F10000CFE5
:10305000993009F0FDCE837009F0B2CFEDE0F1E0D8
:1030600081E031E096E32191222371F08093E90021
:103070003093EB00DF0111972C912093EC0090939B
:10308000ED008F5F873079F78EE78093EA0010922A
:10309000EA008F8980936901DBCE8B8D9C8D109225
:1030A000E9001092570110925601909355018093B8
:1030B0005401898D811192C08E899D89913A49F47C
:1030C000813209F07DCF47E050E064E071E080E0BC
:1030D000B3CF913209F074CF833269F48F89988D20
:1030E000B0E0A0E08093000190930101A093020161
:1030F000B0930301ADCE803269F48091E80082FF85
:10310000FCCF67E084E091E00E9428138BEF80936E
:10311000E8009ECE823209F09BCE8F8980930B010E
:10312000EEEFFFE7859194918B3F9C4D51F1E0E0EC
:10313000F8E08091040190910501A0910601B09101
:103140000701803B9440A105B105F1F480910B018A
:1031500080FD1AC0EE3F8AE0F80789F587E797E718
:1031600091838083809160008093580188E19BE087
:103170000FB6F894A895809360000FBE90936000FE
:1031800067CEEEEFFAE0D5CF808191818737974700
:1031900009F05ECEA8958091600088618093600000
:1031A0008091580180936000EE3F2AE0F20789F099
:1031B0008091FE0A9091FF0A9183808349CE80819D
:1031C00091818737980751F29093FF0A8093FE0A06
:1031D000C5CF1092FF0A1092FE0A3ACE0E940E123C
:1031E000DC0112960D911C910115110509F4E8CE30
:1031F000D801ED91FC910190F081E02DBE016B5E54
:103200007F4FC8010995811123CEF80100851185F2
:10321000EBCF181619060CF41BCED2CEF1E0FF123C
:10322000BECE6CEA71E204CF1F920F920FB60F92DE
:1032300011242F933F938F939F93AF93BF938091CC
:10324000470190914801A0914901B0914A01309104
:10325000400123E0230F2D3758F50196A11DB11D24
:10326000209340018093470190934801A093490126
:10327000B0934A018091410190914201A091430194
:10328000B09144010196A11DB11D8093410190931D
:103290004201A0934301B0934401BF91AF919F912C
:1032A0008F913F912F910F900FBE0F901F90189507
:1032B00026E8230F0296A11DB11DD2CFEF92FF92F7
:1032C0000F931F93CF93DF93F82E192FE62E042F21
:1032D00081E0860F880F0E94A31283E00E94A31250
:1032E000CF2DD12FEC0EFD2EF11CCE15DF05B9F040
:1032F00007FF13C0FE0184910E94A312182F80E0E3
:103300000E94A312812321968111EFCFDF91CF91EB
:103310001F910F91FF90EF9008958881EDCF81E08C
:10332000F5CF0F931F93CF93DF938C0181E090E053
:103330000E945B1680FF32C08AE090E00E945B161C
:103340009FEF980F9E3F50F522E330E0D801509652
:103350003C932E931F9728E330E052963C932E9394
:103360005197CBE0D0E0D801ED91FC910190F08134
:10337000E02D682FC8010995CE010E945B162196A9
:10338000C131D10581F780E00E94C41188EE93E03D
:10339000DF91CF911F910F910C94E215DF91CF91A6
:1033A0001F910F91089504970C949119EAE6F5E0A6
:1033B0001382128288EE93E0A0E0B0E084839583CC
:1033C000A683B78387E191E0918380838FEF9FEF9E
:1033D00095878487EAEBF5E01382128211861286C4
:1033E00080E1838710861782158689E291E09183B8
:1033F000808387E391E095838483108A1786128AFD
:10340000118A81E0838B148A858B168A0895CF9365
:10341000DF9300D000D0CDB7DEB7789484B582605A
:1034200084BD84B5816084BD85B5826085BD85B568
:10343000816085BD80916E00816080936E001092E6
:103440008100809181008260809381008091810061
:1034500081608093810080918000816080938000F2
:1034600080919100826080939100809191008160B1
:103470008093910080919000816080939000809172
:10348000C10084608093C1008091C10082608093FC
:10349000C1008091C10081608093C1008091C30010
:1034A00081608093C3008091C00082608093C000DF
:1034B0008091C20081608093C20080917A00846014
:1034C00080937A0080917A00826080937A00809164
:1034D0007A00816080937A0080917A00806880937E
:1034E0007A00109269011092590110925B0180914B
:1034F000D70081608093D70080EA8093D80089B597
:10350000806189BD89B5826089BD09B400FEFDCFA7
:1035100061E070E080E090E00E942A158091D80080
:103520008F7C80618093D8008091E000807F8093C1
:10353000E0008091E1008E7E8093E1008DE0809339
:10354000E200559A209A81EC80937C0081EF85B946
:1035500087EE84B984E38BB984EF8AB9769A6E9842
:1035600080EF81BB10BA80E58CBD21E02DBD85E0E8
:1035700090E00E94E2155F9902C05F9AF8CF5C98D4
:10358000ECE5F6E09DE085910E946C139A95D9F7E1
:103590005C9A81E88093640031E03093650081E0BB
:1035A0000E94C4110E94641387FF12C05C9885EAD0
:1035B0000E946C135C9A2E982F982D98809164002D
:1035C00080628093640081E083BF889513BEFCCF46
:1035D0000E94641382FF48C02D980E94641384786F
:1035E0008438E1F40E94621388EC90E00E94E215B6
:1035F0002F9882E090E00E9453218F3F29F06FEFD7
:1036000082E090E00E945B2184EF91E00E94E2154D
:103610002F9A0E94641384788438D9F30E9464132B
:1036200084718431E1F40E94621388EC90E00E947E
:10363000E2152E9882E090E00E945321882329F021
:1036400060E082E090E00E945B2184EF91E00E94C4
:10365000E2152E9A0E94641384718431D9F388ECA8
:1036600090E00E94E215B4CF0E94621382E090E0E5
:103670000E945B16882309F459C03E9A3F9A81E064
:1036800090E00E945B16182F147081FF0EC011117C
:103690002E9840EF5FEF5A8349830E94641386FFA0
:1036A00048C02E9A2F9A0E94621382E390E00E94F3
:1036B000E2150E9464138111F8CF0E94B711109295
:1036C000CC051092CB051092CA051092C905599AE3
:1036D000519A5E9AF2E22F2E312CA0E1EA2EF12CC3
:1036E000BCE1CB2ED12C16E1412E512CEAE06E2EFE
:1036F000712C4091470150914801609149017091AE
:103700004A018091C605F42FF81B8F2F9091C705B1
:10371000992309F441C0F093C8051092C70580E0D1
:1037200090E0892B31F30E940000E0CF3E983F9853
:10373000A6CF112331F089819A81049711F42E9A32
:103740002F9881E00E94C41100E128E54CEA55E081
:1037500069817A8184E190E00E941F1180E00E94DB
:10376000C4118FE090E00E94E215E981FA81319660
:10377000FA83E983799709F090CF112311F02F9AFA
:103780002D9880E991E00E94E2150E9462138AEB75
:1037900095E00E94911989CF9091C505F91748F4D9
:1037A0008F5F891708F0BBCF81E083BF889513BE78
:1037B000B6CF81E08093C7054093C6058091C105CF
:1037C0009091C20501969093C2058093C1058091A6
:1037D000C3058093C4050E9464138093C3050E94AF
:1037E000B7111092CC051092CB051092CA05109219
:1037F000C905E0915301E83008F083C0F0E0ED5FC7
:10380000F34E0C948B210B1C411C8F1C8C1DA81E8D
:103810002F1F5F1F8B2000E420E846E65DE170E08B
:1038200060E090E080E00E941F110E94E71508E030
:1038300028E046E55DE1882331F00E94C71408E0E6
:1038400028E04EE55DE16BE270E080E590E00E94EB
:103850001F110E94A71408E028E04EE55DE18111E8
:1038600002C046E55DE165E370E084E590E00E941A
:103870001F1188E00E941411882309F442C081E0DE
:1038800040C100E420E846E559E170E060E090E0E6
:1038900080E00E941F112091520129833BE0239F69
:1038A000B001112400E122E642E958E180E190E014
:1038B0000E941F1180E10E941411882329F0498180
:1038C0004F5F43704093520180E80E941411882397
:1038D00031F080915201815083708093520188E0D1
:1038E0000E941411882339F08091520181110FC078
:1038F00082E08093530184E00E94141181111092A0
:1039000053015E9880E00E94C4115E9A08CF813016
:1039100011F486E0EECF823071F787E0EACF83E1E1
:1039200090E09093CA058093C90582E898E10E94CF
:10393000791408E12EE248EF57E16BE270E090E085
:1039400080E00E941F1100E12DE14EEB57E160E3A2
:1039500070E083E690E00E941F112BE048EA57E1F7
:1039600069E070E082E090E00E941F11F092CA05C9
:10397000E092C9058BE090E09093CC058093CB0555
:1039800089E997E10E94791490E080E00E945B163B
:10399000182F86E997E117FD02C082E997E10E949E
:1039A0007914F092CA05E092C90583E190E0909302
:1039B000CC058093CB058BE897E10E94791480E0D9
:1039C0000E949E140E945D1683E897E10E9479147C
:1039D00082E00E949E140E945D16F092CA05E09259
:1039E000C9058BE190E09093CC058093CB0583E0F3
:1039F0000E949E1489838CE797E10E947914898143
:103A00000E945D1684E797E10E94791481E00E948C
:103A10009E140E945D16F092CA05E092C90583E2E9
:103A200090E09093CC058093CB058BE697E10E94C4
:103A300079145981567090E084E7523009F080E79C
:103A4000E92FF82F8FEF9FEF9A83898384919981D3
:103A5000892740E1849F900111248227282F30E09C
:103A600049815A81452F5527582BC90164E0959506
:103A700087956A95E1F773E0220F331F7A95E1F796
:103A800028273927422753275A8349833196F7FF3E
:103A9000DDCF8A810E945D1689810E945D16EAEF62
:103AA000FFE754915B83EBEFFFE774917983872FF6
:103AB00085238F3F69F088E697E10E9479148B8116
:103AC0000E9494148EE20E94941489810E9494149E
:103AD00088E00E941411882371F0105890E080E073
:103AE0000E945321181709F40CCF612F90E080E059
:103AF0000E945B2106CF80E20E941411882321F0EE
:103B000084E080935301FDCE80E40E941411882349
:103B100009F41CC183E0F5CFF092CA05E092C90513
:103B200087E597E10E94791408E12EE248EF57E11A
:103B30006BE270E090E080E00E941F1100E12DE157
:103B40004EEB57E160E370E083E690E00E941F11C6
:103B50000E94E715882309F4E5C0F092CA05E092B7
:103B6000C9058BE090E09093CC058093CB0544E0B1
:103B700050E06BE371E08AEB95E00E94351360E062
:103B800080E090E30E94CF140E945D1661E080E027
:103B900090E30E94CF140E945D1662E080E090E303
:103BA0000E94CF140E945D1681E597E10E9479146E
:103BB00080E090EA0E94EA140E945D16F092CA0525
:103BC000E092C90583E190E09093CC058093CB050A
:103BD0008AE497E10E94791480E090E50E94EA145B
:103BE0000E945D1682E497E10E94791488E098E5CE
:103BF0000E94EA140E945D16F092CA05E092C9057F
:103C00008BE190E09093CC058093CB058BE397E11B
:103C10000E94791488E090E50E94EA140E945D16E3
:103C200083E397E10E94791480E098E50E94EA140A
:103C30000E945D1680915101811129C081E080931D
:103C40005101809151018230C1F4F092CA05E09295
:103C5000C90583E290E09093CC058093CB0585E283
:103C600097E10E94791480914F01898380915001DE
:103C70000E945D1689810E945D160E94C71480E231
:103C80000E941411882309F45CC082E03ACF81308D
:103C9000C1F68FEF9FEF50E040E0E0E2E983E0E023
:103CA000F8E001C0298329812EBD0DB407FEFDCFA8
:103CB0005EBD0DB407FEFDCF4EBD0DB407FEFDCFBA
:103CC0001EBC0DB407FEFDCF2EB5622F682770E134
:103CD000679F900111242627622F70E0892F992772
:103CE000922B9B01A4E035952795AA95E1F7B3E0C7
:103CF000660F771FBA95E1F7622773278627972704
:103D0000298138E02327798173FFCCCF4F5F5F4F44
:103D1000319741F69093500180934F01809151016A
:103D20008F5F8DCF7092CA056092C905D092CC0585
:103D3000C092CB0582E197E10E9479141092510163
:103D40009ECF80E40E9414118111DACE84E092CDDE
:103D50007092CA056092C9058FEF96E10E947914AE
:103D600008E12EE248EF57E16BE270E090E080E07E
:103D70000E941F1100E12DE14EEB57E160E370E07E
:103D800083E690E00E941F110E94A714882309F483
:103D900059C083E190E09093CA058093C905509281
:103DA000CC054092CB0585EF96E10E947914809175
:103DB0004C010E945D1680914D010E945D1680911C
:103DC0004E010E945D1689E190E09093CA058093B0
:103DD000C9053092CC052092CB058FEE96E10E946A
:103DE000791480914E018A50990B88248394912CE8
:103DF00002C0880C991C8A95E2F7092C000CAA08CD
:103E0000BB084AE0C501B401B7FE0BC08DE20E94B9
:103E1000941466277727CB01681979098A099B09C9
:103E20004AE00E940D168BEE96E10E94791480E222
:103E30000E94141181116ECE80E40E941411811130
:103E400024CF84CF81E090E09093CA058093C90588
:103E5000D092CC05C092CB0585ED96E1E6CFF092ED
:103E6000CA05E092C90584EC96E10E94791408E144
:103E70002EE248EF57E16BE270E090E080E00E94B4
:103E80001F1100E12DE14EEB57E160E370E083E6A6
:103E900090E00E941F11E1E3F0E0F093CA05E09387
:103EA000C905D092CC05C092CB058EEB96E10E945D
:103EB000791480E20E941411811122CEBDCF80912D
:103EC0004B01811131C07092CA056092C9055092B0
:103ED000CC054092CB058BEA96E10E947914709252
:103EE000CA056092C9053092CC052092CB058CE9B9
:103EF00096E10E94791400E12BE048EA57E164E181
:103F000070E08EE290E00E941F112DE14EEB57E130
:103F100060E370E083E690E00E941F1188E00E9459
:103F20001411811117C012CF8130E1F40E94E715FE
:103F30008823A1F00E94C7142DE030E03093CA0519
:103F40002093C905D092CC05C092CB058AE896E1B2
:103F50000E94791480914B018F5F01C086E08093AD
:103F60004B01CFCC823009F08AC00E94E71588232C
:103F700089F360E080E89CEA0E94CF1480E090EF33
:103F80000E94EA1480FDFACFE4E2F7E08491E5E2D2
:103F9000F7E0A490BA2CA82E80E4982E26E237E011
:103FA0003A832983A114B10409F45AC0E981FA8142
:103FB00084918F010E5F1F4F3196F4913F2F282F70
:103FC0003C832B83892C9EBC0DB407FEFDCF4C8116
:103FD0004EBD0DB407FEFDCF5B815EBD0DB407FE87
:103FE000FDCFC80101969A838983F80184918EBD23
:103FF0000DB407FEFDCF93FE0AC08B819C818F71AB
:1040000099274F9721F48B819C810E94ED14F8E051
:104010009F2683FE22C02B813C812F5F3F4F3C8334
:104020002B8331E0A31AB108C1F48B819C818F717D
:104030009927892B21F08B819C810E94ED14E981C5
:10404000FA81A49098012D5F3F4F3A8329830E5F38
:104050001F4FF8010491B02EA5CF09811A81B2CF6C
:104060000E94C714109251017092CA056092C9054E
:10407000D092CC05C092CB0581E197E069CF833027
:1040800009F0D8C00E94E715882309F4CEC0E4E205
:10409000F7E08491E5E2F7E04491542F482FA0E245
:1040A00086E297E0B8E04115510509F4B7C0FC017C
:1040B00064919C012E5F3F4F0196FC018491982FE3
:1040C000862F1A2FAEBD0DB407FEFDCF9EBD0DB4D9
:1040D00007FEFDCF8EBD0DB407FEFDCF1EBC0DB497
:1040E00007FEFDCFB9016F5F7F4FF9010491EEB577
:1040F0000E1399C0AB2713FF0CC001964150510914
:1041000041F4FB014491C90103963196E4915E2F7D
:10411000CACF9B01D6CF80914B01811117C07092FD
:10412000CA056092C9055092CC054092CB058DEC32
:1041300096E00E9479147092CA056092C905309287
:10414000CC052092CB058CEB96E0D3CE8330D9F40E
:1041500027E030E03093CA052093C9055092CC0582
:104160004092CB0588EA96E00E9479144BE250E039
:104170005093CA054093C9053092CC052092CB05D7
:1041800080EA96E085C087E090E09093CA0580932E
:10419000C905F092CC05E092CB058CE896E00E9430
:1041A0007914E7E0F0E0F093CA05E093C905D092F6
:1041B000CC05C092CB0588E796E00E94791427E0F1
:1041C00030E03093CA052093C90548E250E050938F
:1041D000CC054093CB0589E696E00E947914509176
:1041E0004B0159835230A9F40E94E715882389F0C6
:1041F0006BEF80E090EC0E94CF1480E090EF0E9483
:10420000EA1480FDFACF0E94C71484EF91E00E9467
:10421000E21579817F5F70934B0173CB80914B01E5
:104220008F5F80934B010E94C71480914B018F5F79
:1042300080934B0180914B01843061F45092CA0508
:104240004092C905D092CC05C092CB0582E097E0A0
:104250000E94791480914B01853061F45092CA0517
:104260004092C905D092CC05C092CB0583EF96E071
:104270000E94791480914B01863061F47092CA05D6
:104280006092C905D092CC05C092CB0580EE96E035
:104290000E9479148CE00E941411882309F431CB18
:1042A00010924B01ECCAF999FECF92BD81BDF89AEC
:1042B000992780B50895262FF999FECF1FBA92BD90
:1042C00081BD20BD0FB6F894FA9AF99A0FBE0196F7
:1042D0000895A1E21A2EAA1BBB1BFD010DC0AA1F47
:1042E000BB1FEE1FFF1FA217B307E407F50720F05F
:1042F000A21BB30BE40BF50B661F771F881F991FDA
:104300001A9469F760957095809590959B01AC0122
:10431000BD01CF010895EE0FFF1F0590F491E02D30
:10432000099481E090E0F8940C949621F894FFCFE2
:10433000FFFFFFFF00E100000000000000C18081DE
:104340000000000000000022125D1543123812899F
:10435000124712651200000000731335139B149A64
:10436000149119FCFF0000D31930004465763A001F
:00000001FF
