:100000000C94A3180C94CB180C94CB180C94CB180C
:100010000C94CB180C94CB180C94CB180C94CB18D4
:100020000C94CB180C94CB180C94041E0C94731ED7
:100030000C94CB180C94CB180C94CB180C94CB18B4
:100040000C94CB180C94CB180C94CB180C94CB18A4
:100050000C94CB180C94CB180C94CB180C94A520B2
:100060000C94CB180C94CB180C94CB180C94CB1884
:100070000C94CB180C94CB180C94CB180C94CB1874
:100080000C94CB180C94CB180C94CB180C94CB1864
:100090000C94CB180C94CB180C94CB180C94CB1854
:1000A0000C94CB180C94CB180C94CB1800000000C7
:1000B000003E5B4F5B3E3E6B4F6B3E1C3E7C3E1CEE
:1000C000183C7E3C181C577D571C1C5E7F5E1C0034
:1000D000183C1800FFE7C3E7FF0018241800FFE7EB
:1000E000DBE7FF30483A060E2629792926407F05AE
:1000F0000507407F05253F5A3CE73C5A7F3E1C1CC4
:1001000008081C1C3E7F14227F22145F5F005F5F83
:1001100006097F017F006689956A6060606060946F
:10012000A2FFA29408047E040810207E2010080874
:100130002A1C08081C2A08081E101010100C1E0C7F
:100140001E0C30383E3830060E3E0E060000000011
:100150000000005F00000007000700147F147F14F8
:10016000242A7F2A1223130864623649562050003D
:1001700008070300001C2241000041221C002A1C29
:100180007F1C2A08083E0808008070300008080814
:100190000808000060600020100804023E51494534
:1001A0003E00427F400072494949462141494D3352
:1001B0001814127F1027454545393C4A49493141B9
:1001C000211109073649494936464949291E000087
:1001D00014000000403400000008142241141414DC
:1001E0001414004122140802015909063E415D59C8
:1001F0004E7C1211127C7F494949363E41414122D1
:100200007F4141413E7F494949417F090909013EFA
:10021000414151737F0808087F00417F4100204021
:10022000413F017F081422417F404040407F021C33
:10023000027F7F0408107F3E4141413E7F0909094A
:10024000063E4151215E7F09192946264949493216
:1002500003017F01033F4040403F1F2040201F3FDC
:100260004038403F63140814630304780403615961
:10027000494D43007F4141410204081020004141A3
:10028000417F04020102044040404040000307084F
:100290000020545478407F2844443838444444284B
:1002A000384444287F385454541800087E090218F2
:1002B000A4A49C787F0804047800447D400020407A
:1002C000403D007F1028440000417F40007C0478BE
:1002D00004787C080404783844444438FC18242406
:1002E0001818242418FC7C08040408485454542486
:1002F00004043F44243C4040207C1C2040201C3C03
:100300004030403C44281028444C9090907C4464F9
:10031000544C44000836410000007700000041368C
:10032000080002010204023C2623263C1EA1A16112
:10033000123A4040207A3854545559215555794144
:100340002154547841215554784020545579400C1B
:100350001E527212395555555939545454593955FC
:100360005454580000457C410002457D420001453F
:100370007C40F0292429F0F0282528F07C545545AC
:10038000002054547C547C0A097F4932494949323F
:100390003248484832324A4848303A4141217A3A54
:1003A00042402078009DA0A07D39444444393D401E
:1003B00040403D3C24FF2424487E4943662B2FFCCB
:1003C0002F2BFF0929F620C0887E09032054547979
:1003D000410000447D413048484A32384040227A4A
:1003E000007A0A0A727D0D19317D2629292F2826C7
:1003F0002929292630484D402038080808080808CF
:100400000808382F10C8ACBA2F102834FA00007B27
:10041000000008142A142222142A1408950022002D
:1004200095AA005500AAAA55AA55AA000000FF00E7
:10043000101010FF00141414FF001010FF00FF1024
:1004400010F010F0141414FC001414F700FF000056
:10045000FF00FF1414F404FC141417101F10101FD5
:10046000101F1414141F00101010F0000000001FC3
:10047000101010101F10101010F010000000FF10CE
:100480001010101010101010FF10000000FF1400CA
:1004900000FF00FF00001F10170000FC04F41414FC
:1004A0001710171414F404F40000FF00F7141414C8
:1004B00014141414F700F7141414171410101F1048
:1004C0001F141414F4141010F010F000001F101F6B
:1004D0000000001F14000000FC140000F010F010D9
:1004E00010FF10FF141414FF141010101F00000050
:1004F00000F010FFFFFFFFFFF0F0F0F0F0FFFFFF54
:100500000000000000FFFF0F0F0F0F0F38444438AA
:10051000447C2A2A3E147E02020606027E027E02E5
:1005200063554941633844443C04407E201E200604
:10053000027E020299A5E7A5991C2A492A1C4C7241
:1005400001724C304A4D4D303048784830BC625AC8
:10055000463D3E494949007E0101017E2A2A2A2A58
:100560002A44445F444440514A444040444A514034
:100570000000FF0103E080FF000008086B6B0836F5
:1005800012362436060F090F060000181800000066
:100590001010003040FF0101001F01011E00191D55
:1005A0001712003C3C3C3C0000000000F0F89C8E20
:1005B0008783878E9CF8F00000FEFF03030303038C
:1005C000070EFCF80000FEFF0303030303070EFC05
:1005D000F80000FFFF00000000000000FFFF000027
:1005E000FEFF8383838383C7EE7C380000F8FC0E14
:1005F00007030303070EFCF800003F7FE0C0808084
:10060000C0E07F3FFFFF01010101010101FFFF0089
:1006100000FFFF0C0C0C0C1C3E77E3C100007FFFB9
:10062000C0C0C0C0C0E0703F1F00001F3F70E0C0EE
:10063000C0C0E0703F1F00007FFFC1C1C1C1C1E366
:10064000773E1C00001F3F70E0C0C0C0E0703F1F3D
:10065000000000000001FFFF01000000D5F08D1434
:10066000A1C881CFD9F1AF2000696E2061206D6FE4
:100670006D656E742E2E2E0041726475626F792046
:1006800077696C6C207265626F6F7400466C617381
:1006900068696E6720626F6F746C6F616465720069
:1006A0004661696C65642100466C617368696E67B8
:1006B00020626F6F746C6F6164657200466C617369
:1006C0006820626F6F746C6F616465720050726550
:1006D000737320202020627574746F6E20746F0015
:1006E0004D6F6463686970206E6F7420666F756EFD
:1006F000642100566572696679207375636365735A
:100700007300566572696679206661696C6564215B
:1007100000AC070000FBC502C66FC700C6FFC5FEE0
:10072000C5FDC5FCC5FBC5FAC5F9C5F8C5F7C5F6D5
:10073000C5F5C5F201003A80E189BD82E189BD09B4
:10074000B400FEFDCF0895C9D569F08091E9008F0E
:10075000931092E9009ED483FF01C01DD58F91872D
:10076000708093E90008958EEF0090E10008220068
:1007700092E1000895F201F999FECFF2BDE1BD08C2
:1007800095F9DFF89A80B508C0F5DF1FBA80BD0F74
:10079000B6F894FA9AF99A0FBE31962F010895E0AF
:1007A000E0F0E0859194910196089580EE8BB98BED
:1007B000EA34D0109289008AEF8093880082E0802A
:1007C000936F0083E080938100E7E5F7E785913A36
:1007D000D0E336E1F781E08093D7008AE482BF104E
:1007E00092D8001092E2001092DA001092E100809C
:1007F000E808D019BC1EBA1092E00061D489E0521A
:10080000D481E98093D8000895A3E6B1E090E81A76
:10081000D08D939A95E1F7089586E008D010C083B3
:10082000E005D08F2F0FD08E2F0DD080E05E9A592B
:100830009809C005D085E0FADF05D080FDFDCF59CD
:100840009A5E9808958EBD8DB587FFFDCF8EB50851
:10085000958FE08221E9F7F3DFE3E6F6E090EB5CC9
:1008600098892FF0DF80E1EEDF5C9A8191EBDF83E6
:10087000E68E278F77D1F79395983B89F70895E314
:10088000E6F1E097FC38C094FC4FC092FE089586D4
:1008900084882011F4992459C0F894C089D7852000
:1008A000E030E080E090E4AFEFBFEF119688199060
:1008B00040E0F72D01BD4F8D0127FD13C0E0E0F8AA
:1008C000E011928EE7819392E4E11791939AE50803
:1008D000F092E4E334C9F781931082BDDFFE012179
:1008E000969EDF92DFF901FCD420583F4F040D158E
:1008F0001D8A9411F70FC28301282D60906C01703E
:10090000906B0141D019F48823C1F708953801880C
:10091000243AD0B9F580916A01821709F483016005
:10092000906E0170906D01F4CF60906E0170906DCB
:10093000012AD059F48823C1F708959FEF95FC034D
:10094000C096FE089591E097FB890E662477248374
:1009500001222719D0B1F48823A1F380916A0136CE
:10096000F0881650F4821730F0213003C08815202B
:10097000F4281710F48301282F60906E0170906D99
:1009800001E8CF3801822EF3014ADF3EDFC3E6D112
:10099000E0E0E5F7E709908591081621F4E735D105
:1009A000F7088080104CCFC9E031DFCA95E9F7D055
:1009B000E195FC1EC097FC53C094FC35C0C3E6D241
:1009C000E0E3E6F6E098E088E78E0F00840192E825
:1009D00017E1F7884F09900192E817E1F7C858DF4F
:1009E0004F9A9589F735DFC85FD340C33E49F74931
:1009F000C0C3E6D6E0EBE5FAE098E08E2F88570218
:100A0000900086E817E1F738960A900292E817E11D
:100A1000F73897C857D0409A9581F71ADFC850DC4D
:100A20004FC33E41F72EC0A3EEB6E0E3E6F6E09AF0
:100A3000E0C6E00D9080818025807F8025829581B1
:100A400093A336B90709F4B2E0E336F90709F4F2E3
:100A5000E0E336FC0771F7FCDEDA9529F712C0A354
:100A6000EEB9E0E3E6FAE092E00E90829180258F05
:100A700070802582958083E336F907B1F7E9DEDAE5
:100A80009571F78827089541524455424F59D5F042
:100A90008D14A1C881CFD9F1AF000000FFFFCFCFE7
:100AA000FFFFFFFFCFCFFFFF0000FE067E7E06FEAA
:100AB00046565616FE0656461EFE3F61E9E3FFE324
:100AC000EBE3FFE3EBE3FFE16B3F001201100102F8
:100AD0000000084123360001000000000109023E29
:100AE0000002010080320904000001020201000539
:100AF00024001001042402040524060001070582D5
:100B0000030800FF09040100020A000000070504B1
:100B10000210000107058302100001F103003C11DF
:100B2000241FBE04B714BE88E18093600010926059
:100B3000008EEF9AE09EBF8DBF2224332421013125
:100B400001410180E88AC00F928F939F931F920FFB
:100B5000B60F9211244F936F938091DA0080FF3784
:100B6000C023C00F920FB68F939F93EF93FF93888C
:100B7000278093850080938400E0E5F1E0928190E6
:100B80007261F490818917980B908309F45D9A91B2
:100B9000818917980B918309F4289A239411F4837F
:100BA00015381EFF91EF9154C08091D80080FF0F3F
:100BB000C08091DA008E7F8093DA008091D9008026
:100BC000FF04C0ADDD81E08EBB02C019BC1EBA803F
:100BD00091E10080FF0BC054D280FF08C054D28046
:100BE00091D800806202DE19BC85E08EBB8091E165
:100BF0000084FF1AC045D284FF17C091DD8091D8D0
:100C0000008F7DF3DD8FEEA4DD3BD28F7E81603ED1
:100C1000D280915301882331F48091E30087FD0253
:100C2000C081E001C084E08EBB8091E10083FF0CB5
:100C3000C027D283FF09C087EF8BDD82E08EBB1017
:100C400092530185DD20D22FD26F914F910F901FCB
:100C5000909F918F910FBE0F901895809361001017
:100C6000926100B1E0B5BF82E085BF81EF85B987B1
:100C7000EE84B91DB8769A10BA80EF81BB82E68BFC
:100C8000B982EF8AB980E58CBDBDBDA0E0E4E9F78B
:100C9000E705900D92A035E1F71D92BB30E9F70111
:100CA000FD05C004C07C9B02C06EDD41F572DD789D
:100CB000945EDE71F0ABE9B7E0E3E6F7E790E105BB
:100CC000900D929A95E1F7A059BF4FE339B9F7B863
:100CD000DD52D02DDD80915201807861F48FB1809A
:100CE00095807F66991C9B8460982E1BDE8110BBCB
:100CF000DD92FC02C0332062F746DD51F3F894899F
:100D0000EB80DD81E08093E00010926F0010928113
:100D100000109285001092840081E085BF15BE2EE0
:100D20009A2F9A2D9A5D9A289A0C940000A4D107C4
:100D3000C057D102C0C6D239F0A0D182FFFBCF8507
:100D4000FFF7CF8091F1000895082E83E095D185BB
:100D5000FD07C08AD102C0B5D269F08FD180FFFBF8
:100D6000CF0092F10080915201807221F45D98844D
:100D7000E68093500108957FD182FF34C180915263
:100D800001807221F4289884E680935101CFDF1806
:100D90002F853431F422248EE7382EE0DC8DE00BF1
:100DA000C1843511F4C3DFFACF8C34C1F38035B17F
:100DB000F3843721F484E4C8DF80E0FDC08136117C
:100DC000F489E5F9C0813429F4B1DF582EAFDF484A
:100DD0002EE5CF803711F483E5EEC0833539F4E09A
:100DE000E5F7E78591B1DFE735E1F7E6C086352124
:100DF000F481E3AADF87E3DFC0863761F481E3662D
:100E00009B8E5F1C9B8F5FA0DF8FB1809582958F3B
:100E1000708F5BD1C08837A9F489DF809352012895
:100E20009A84FD28985D9A83FD5D982E9A81FD2E07
:100E3000982F9A82FD2F982D9A80FD2D9887FD88F6
:100E400024ADCF8A3649F48FE9E5DCC3E0EFDC7CE2
:100E5000DFCA95E1F7E8DCB0C0833731F487E87486
:100E6000DF85E972DF8EE1A7C0853639F4E0E8F36B
:100E7000E73ED2E058F040E0F791CF823631F48976
:100E8000E563DF80E061DF80E896C0823419F08797
:100E90003609F07DC033244ADFD82F48DFC82F46FB
:100EA000DF082F8354843008F085C0063411F444E1
:100EB0000C551CF20110926F001736B9F4033489F7
:100EC000F483E0A2DCB3DC8EB51EBC3EDF0DB421A2
:100ED00097D1F7A9DC08C0063411F4859101C0440C
:100EE000DC33DF2197C2F72F014AC00334A9F4E1B4
:100EF0001104C086DC88ED88DC90DC82DC82E08432
:100F0000DC15DF0DB48EBDCA95D9F7319690DC851E
:100F1000DCDA9569F72F0131C00634F1F49F01F452
:100F200037D8F4E5D119C002DF063461F4C0FB46BE
:100F3000F0F43728F4182E81E087BFE895112432A9
:100F400096082E0AC0043439F4DF01B370AD59B9E4
:100F50004F8D93319601C00CDC21972AF704343170
:100F6000F42F01F370FE2B49F46BDC07C006342923
:100F7000F42F01F901F43708F4B8D18DE0E5DE066D
:100F80003411F45694479482E080936F0015C08228
:100F900037E1E049F08634E0E031F08E34E3E019E7
:100FA000F0813531F4E2E0F0E089E087BF8491031D
:100FB000C08B3111F08FE3C8DE83E0C6DB55D095DE
:100FC000FF03C009C07ED171F058D080FFFBCF4C29
:100FD000D002C077D139F051D080FFFBCF84E0B48C
:100FE000DB8BE743C00895E4E5F1E067E090915BB7
:100FF0000180915C01913231F0913AE1F58132D179
:10100000F55ED181C0823271F48191805B819184DF
:101010004089F580915D0180FD2DC0F89481E080CC
:1010200093E0007DCD803231F54AD14BD1E9F08596
:1010300030D9F023D083FD18C082FFF7CF04C081E0
:10104000DE8193615031F09091F3008091F200893C
:101050002BB1F7C6DF611549F704C033D129F085FC
:101060003019F00BD080FFF9CF8EE79091E800891E
:10107000238093E800089584E067DB8091E800080E
:10108000958091E2000895FCDF8E7F80618093E27D
:1010900000089582E061EC09D083E061E802D08429
:1010A000E060E842E103C080E060E042E04DDB81C7
:1010B000E007D01092ED006093EC004093ED000843
:1010C000959091EB00892B8093EB00089560E0925E
:1010D0003029F0913029F4E0E062E102C0E2E16EF3
:1010E000E3F1E0089580915B0188234CF402C0E9AC
:1010F000D0C1F3C3DF82FFFBCF73CFE3D091F3BD49
:10110000DF80FFFBCFB1CF4091610150916201467A
:1011100017510520F0462F611509F4A6DF50E02293
:10112000C0D0D061F1853051F1A8DF83FD59CFA542
:10113000DF82FD21C080FF16C03091F3002091F2C4
:101140000006C081918093F10041502F5F3F4F41D5
:101150001519F028303105A8F350E0283031050981
:10116000F451E082DF4115E1F65523D1F604C0A920
:10117000D029F0853019F081DF82FFF9CF31CFEB34
:10118000E5F1E0DFDD8193E336E1F72DDF76DF8304
:10119000FF91C080915B0190915C01913009F170E9
:1011A000F09330F1F0953009F444C0963009F456CC
:1011B000C0983009F460C0993059F767C08238414F
:1011C000F780915F01C0DA2091EB001092E900777F
:1011D000D02295269521702093F1001092F10052B3
:1011E000C0882311F08230A1F68F71823089F68099
:1011F000915D018823D1F420915F01277049F2208D
:1012000093E9008091EB0080FF10C0933011F480CF
:10121000E20BC080E155DF81E0880F2A95E9F78075
:1012200093EA001092EA0088E04BDF1092E9004751
:10123000D02AC0882391F410915D0110680FB7F88F
:10124000943ED050DF1ADF80FFFDCF1093E30010F3
:101250003883E009F482E08EBB0FBF2CC080588237
:101260003048F580915D0190915E0130DF60301172
:10127000F126D049DF1FC08038E9F421D080915396
:10128000018093F100F1DE2EDF15C0882399F490E0
:10129000915D01923078F49093530111D023DF8057
:1012A000915301882321F48091E30091E087FD941C
:1012B000E09EBBEFDEE2DE83FF089580E201DF8780
:1012C000EFD4CE8EB388230895A3E6B1E0F437B807
:1012D000F40ED090E40D901D9081E087BFE8953228
:1012E000969A95C1F71124E058F04085E001C0833B
:1012F000E001D081E187BFE89507B600FCFDCF088B
:10130000950300FD3F3137D8CFFBDC000011241FCF
:10131000BECFE5D1E0DEBFCDBF70D1A6C1FBC99085
:10132000E09AEF00009A95E9F78A95D1F708958839
:10133000B38A7F88BB87B38A7F87BBBC98089598A0
:10134000E087FF09C0C09A880FC29AB1998F5FC227
:10135000989150B1F70895C098F6CF1F93CF93DFBF
:1013600093D82F162F892FEBDF8D2FE9DF80E0E751
:10137000DFC82F812FE4DFD33509F0C82F8C2FDF92
:1013800091CF911F91089560E088E090E5E6CF60ED
:10139000E088E098E5E2CF60E080E090E5DECFCF46
:1013A00093DF93EC018CE4CBDF8D2FC9DF8C2FC74B
:1013B000DF80E0C5DF60E080E090EFCFDF80FDFA06
:1013C000CFDF91CF910895CF9388B38A7F88BB8771
:1013D000B3856087BBCAE0C49ABC9A81E0A0DFC431
:1013E0009884E19DDF60E083E59CEAB7DF833529DF
:1013F000F0C15089F79CDF80E001C081E0CF910807
:1014000095CF93ABDFC82F60E080E090EFA6DF8040
:10141000FDFACF8C2FCF9108955F926F927F928FBC
:10142000929F92AF92BF92CF92DF92EF92FF920F74
:10143000931F93CF93DF9360E080E098E58EDF8089
:101440006CC0E08F3F29F060E080E89CEAD9DFC102
:10145000E081E496E08F3F910521F06FEF80EA9CF8
:10146000EACFDF8DE396E0823D910521F062ED88C1
:10147000EA9CEAC6DF89E396E08B3C910521F06B9C
:10148000EC84EA9CEABDDFC11104C060E080E89C06
:10149000EAB7DF2EE1C22E20E0D22EF60184910FB2
:1014A000E110E0F801A490BA2CA82E30E4732EC00D
:1014B000E2D0E048E0642EA114B10409F43CC0FE7F
:1014C0000184917E01F2E0EF0EF11C2196FE01C431
:1014D00091DC2FC82F572C872D32DF8D2F30DF8CDA
:1014E0002F2EDF4701FFEF8F1A9F0AF70184912704
:1014F000DF73FE07C0CE018F739927CF9711F4CE0B
:10150000014EDF762453FE15C02196F1E0AF1AB1EB
:101510000881F4CE018F739927892B11F0CE013FFA
:10152000DFF401A490E7012396F70132968491B885
:101530002EC2CF7401CFCFF601C490F801049110F0
:101540002F0C2D80E2D82EC0E2D0E098E0C92E0109
:1015500015110561F1FE0184917E01F2E0EF0EF1BB
:101560001C2196FE01C491DC2FC82FBD2C8D2DE7C8
:10157000DE8D2FE5DE8C2FE3DE80E0E1DE97012FAC
:101580005F3F4FF7019491891324C0DC24B3FE0C14
:10159000C021960150110941F4F9010491E701239A
:1015A0009631968491182FD3CF7901DFCFE199FE40
:1015B000CF1FBA1EBAE09A8DB3813B59F0982F9194
:1015C0007B913BB9F49EE4892790E29CBB8DBBE202
:1015D0009AE19ADF91CF911F910F91FF90EF90DFE9
:1015E00090CF90BF90AF909F908F907F906F905FC3
:1015F000909ECE90E081EBE9CF189517BA88E088ED
:10160000BB15BE8FE080BDE199FECF1FBA1EBAE0C8
:101610009A8DB38B3F29F484E182DED5DE8111FC03
:10162000DE00E180E2F82E90E3E92E05BBFBBEE58B
:10163000BE7894889515BE1BBED0E0C0E010E08156
:10164000E0B49906C06CDECF3FDC07C1F32196F60B
:10165000CF66DE1F5F143198F3C03DD74030F3B33F
:10166000DE882319F3D9DEE1CFF894FFCF0000AD77
:10167000070000FCC503C670C701C600C6FFC5FE53
:10168000C5FDC5FCC5FBC5FAC5F9C5F8C5F7C5F666
:10169000C5F201003A80E189BD82E189BD09B4004B
:1016A000FEFDCF0895CAD569F08091E9008F9310AF
:1016B00092E9009FD483FF01C01ED58F918770806F
:1016C00093E90008958EEF0090E10008220092E176
:1016D000000895F201F999FECFF2BDE1BD0895F938
:1016E000DFF89A80B508C0F5DF1FBA80BD0FB6F8E5
:1016F00094FA9AF99A0FBE31962F010895E0E0F01E
:10170000E0859194910196089580EE8BB98BEA342F
:10171000D0109289008AEF8093880082E080936FD6
:101720000083E080938100E7E5F7E785913AD0E315
:1017300036E1F781E08093D7008AE482BF1092D827
:10174000001092E2001092DA001092E10080E808A6
:10175000D019BC1EBA1092E00062D489E053D48143
:10176000E98093D8000895A3E6B1E090E81AD08DFF
:10177000939A95E1F7089586E008D010C083E005BC
:10178000D08F2F0FD08E2F0DD080E05E9A59980900
:10179000C005D085E0FADF05D080FDFDCF599A5E07
:1017A0009808958EBD8DB587FFFDCF8EB508958FB6
:1017B000E08221E9F7F3DFE3E6F6E090EB5C98895D
:1017C0002FF0DF80E1EEDF5C9A8191EBDF83E68E24
:1017D000278F77D1F79395983B89F70895E3E6F142
:1017E000E097FC38C094FC4FC092FE089586848830
:1017F0002011F4992459C0F894C089D78520E0308D
:10180000E080E090E4AFEFBFEF119688199040E0E0
:10181000F72D01BD4F8D0127FD13C0E0E0F8E01169
:10182000928EE7819392E4E11791939AE508F09202
:10183000E4E334C9F781931082BDDFFE0121969E57
:10184000DF92DFF901FDD420583F4F040D151D8AAA
:101850009411F710C28301282D60906C0170906B79
:101860000141D019F48823C1F70895380188243A3A
:10187000D0B9F580916A01821709F4830160906EF6
:101880000170906D01F4CF60906E0170906D012A2F
:10189000D059F48823C1F708959FEF95FC03C096B3
:1018A000FE089591E097FB890E6624772483012238
:1018B0002719D0B1F48823A1F380916A0136F0880A
:1018C0001650F4821730F0213003C0881520F42818
:1018D0001710F48301282F60906E0170906D01E85D
:1018E000CF3801822EF3014ADF3EDFC3E6D1E0E0CC
:1018F000E5F7E709908591081621F4E735D1F70857
:101900008080104CCFC9E031DFCA95E9F7D0E1956E
:10191000FC1EC097FC53C094FC35C0C3E6D2E0E384
:10192000E6F6E098E088E78E0F00840192E817E180
:10193000F7884F09900192E817E1F7C858DF4F9AEE
:101940009589F735DFC85FD340C33E49F749C0C327
:10195000E6D6E0EBE5FAE098E08E2F88570290009B
:1019600086E817E1F738960A900292E817E1F7380F
:1019700097C857D0409A9581F71ADFC850DC4FC3FB
:101980003E41F72EC0A3EEB6E0E3E6F6E09AE0C6ED
:10199000E00D9080818025807F802582958193A3B2
:1019A00036B90709F4B2E0E336F90709F4F2E0E3E7
:1019B00036FC0771F7FCDEDA9529F712C0A3EEB901
:1019C000E0E3E6FAE092E00E90829180258F70804D
:1019D0002582958083E336F907B1F7E9DEDA957160
:1019E000F78827089541524455424F59D5F08D1438
:1019F000A1C881CFD9F1AF000000FFFFCFCFFFFF1B
:101A0000FFFFCFCFFFFF0000FE067E7E06FE46569C
:101A10005616FE0656461EFE3F61E9E3FFE3EBE382
:101A2000FFE3EBE3FFE16B3F001201100102000056
:101A3000084123360001000000000109023E0002B7
:101A400001008032090400000102020100052400A7
:101A5000100104240204052406000107058203087E
:101A600000FF09040100020A00000007050402103B
:101A7000000107058302100001F203003C11241F3E
:101A8000BE04B714BE88E180936000109260008E9F
:101A9000EF9AE09EBF8DBF22243324210131014102
:101AA0000180E88AC00F928F939F931F920FB60F09
:101AB0009211244F936F938091DA0080FF37C023F7
:101AC000C00F920FB68F939F93EF93FF9388278059
:101AD00093850080938400E0E5F1E092819072614B
:101AE000F490818917980B908309F45D9A9181890C
:101AF00017980B918309F4289A239411F4831538CD
:101B00001EFF91EF9154C08091D80080FF0FC080DC
:101B100091DA008E7F8093DA008091D90080FF04F3
:101B2000C0ADDD81E08EBB02C019BC1EBA8091E160
:101B30000080FF0BC055D280FF08C055D28091D8DD
:101B400000806202DE19BC85E08EBB8091E10084DA
:101B5000FF1AC046D284FF17C091DD8091D8008F54
:101B60007DF3DD8FEEA4DD3CD28F7E81603FD2809D
:101B7000915301882331F48091E30087FD02C081F5
:101B8000E001C084E08EBB8091E10083FF0CC0289F
:101B9000D283FF09C087EF8BDD82E08EBB109253AA
:101BA0000185DD21D230D26F914F910F901F909F10
:101BB000918F910FBE0F90189580936100109261E4
:101BC00000B1E0B5BF82E085BF81EF85B987EE84C3
:101BD000B91DB8769A10BA80EF81BB82E68BB982C4
:101BE000EF8AB980E58CBDBDBDA0E0E4E9F7E7056B
:101BF000900D92A035E1F71D92BB30E9F701FD068B
:101C0000C000FF04C07C9B02C06DDD41F571DD7832
:101C1000945DDE71F0ABE9B7E0E3E6F7E790E1054C
:101C2000900D929A95E1F7A059BF4FE339B9F7B7F4
:101C3000DD52D02CDD80915201807861F48FB1802B
:101C400095807F66991C9B8460982E1ADE8110BA5D
:101C5000DD92FC02C0332062F745DD51F3F8948930
:101C6000EB7FDD81E08093E00010926F00109281A5
:101C700000109285001092840081E085BF15BE2E71
:101C80009A2F9A2D9A5D9A289A0C940000A4D10755
:101C9000C057D102C0C6D239F0A0D182FFFBCF8598
:101CA000FFF7CF8091F1000895082E83E095D1854C
:101CB000FD07C08AD102C0B5D269F08FD180FFFB89
:101CC000CF0092F10080915201807221F45D9884DE
:101CD000E68093500108957FD182FF34C1809152F4
:101CE00001807221F4289884E680935101CFDF1897
:101CF0002F853431F422248EE7382EDFDC8DE00B83
:101D0000C1843511F4C3DFFACF8C34C1F38035B10F
:101D1000F3843721F484E4C8DF80E0FDC08136110C
:101D2000F489E5F9C0813429F4B1DF582EAFDF48DA
:101D30002EE5CF803711F483E5EEC0833539F4E02A
:101D4000E5F7E78591B1DFE735E1F7E6C0863521B4
:101D5000F481E3AADF87E3DFC0863761F481E366BD
:101D60009B8E5F1C9B8F5FA0DF8FB1809582958FCC
:101D7000708F5BD1C08837A9F489DF809352012826
:101D80009A84FD28985D9A83FD5D982E9A81FD2E98
:101D9000982F9A82FD2F982D9A80FD2D9887FD8887
:101DA00024ADCF8A3649F48FE9E4DCC3E0EEDC7C75
:101DB000DFCA95E1F7E7DCB0C0833731F487E87418
:101DC000DF85E972DF8EE1A7C0853639F4E0E8F3FC
:101DD000E73ED2E058F040E0F791CF823631F48907
:101DE000E563DF80E061DF80E896C0823419F08728
:101DF0003609F07DC033244ADFD82F48DFC82F468C
:101E0000DF082F8354843008F085C0063411F44471
:101E10000C551CF20110926F001736B9F403348987
:101E2000F483E0A1DCB2DC8EB51EBC3EDF0DB42134
:101E300097D1F7A8DC08C0063411F4859101C0439E
:101E4000DC33DF2197C2F72F014AC00334A9F4E144
:101E50001104C085DC88ED87DC8FDC81DC82E083C7
:101E6000DC15DF0DB48EBDCA95D9F731968FDC84B1
:101E7000DCDA9569F72F0131C00634F1F49F01F4E3
:101E800037D8F4E5D119C002DF063461F4C0FB464F
:101E9000F0F43728F4182E81E087BFE8951124323A
:101EA00096082E0AC0043439F4DF01B370AD59B975
:101EB0004F8D93319601C00BDC21972AF704343102
:101EC000F42F01F370FE2B49F46ADC07C0063429B5
:101ED000F42F01F901F43708F4B8D18DE0E5DE06FE
:101EE0003411F45694479482E080936F0015C082B9
:101EF00037E1E049F08634E0E031F08E34E3E01978
:101F0000F0813531F4E2E0F0E089E087BF849103AD
:101F1000C08B3111F08FE3C8DE83E0C5DB55D0956F
:101F2000FF03C009C07ED171F058D080FFFBCF4CB9
:101F3000D002C077D139F051D080FFFBCF84E0B31D
:101F4000DB8BE743C00895E4E5F1E067E090915B47
:101F50000180915C01913231F0913AE1F58132D109
:101F6000F55ED181C0823271F48191805B81918470
:101F70004089F580915D0180FD2DC0F89481E0805D
:101F800093E0007CCD803231F54AD14BD1E9F08528
:101F900030D9F023D083FD18C082FFF7CF04C08171
:101FA000DE8193615031F09091F3008091F20089CD
:101FB0002BB1F7C6DF611549F704C033D129F0858D
:101FC0003019F00BD080FFF9CF8EE79091E80089AF
:101FD000238093E800089584E066DB8091E80008A0
:101FE000958091E2000895FCDF8E7F80618093E20E
:101FF00000089582E061EC09D083E061E802D084BA
:10200000E060E842E103C080E060E042E04CDB8158
:10201000E007D01092ED006093EC004093ED0008D3
:10202000959091EB00892B8093EB00089560E092EE
:102030003029F0913029F4E0E062E102C0E2E16E83
:10204000E3F1E0089580915B0188234CF402C0E93C
:10205000D0C1F3C3DF82FFFBCF73CFE3D091F3BDD9
:10206000DF80FFFBCFB1CF4091610150916201460B
:1020700017510520F0462F611509F4A6DF50E02224
:10208000C0D0D061F1853051F1A8DF83FD59CFA5D3
:10209000DF82FD21C080FF16C03091F3002091F255
:1020A0000006C081918093F10041502F5F3F4F4166
:1020B0001519F028303105A8F350E0283031050912
:1020C000F451E082DF4115E1F65523D1F604C0A9B1
:1020D000D029F0853019F081DF82FFF9CF31CFEBC5
:1020E000E5F1E0DFDD8193E336E1F72DDF76DF8395
:1020F000FF91C080915B0190915C01913009F1707A
:10210000F09330F1F0953009F444C0963009F4565C
:10211000C0983009F460C0993059F767C0823841DF
:10212000F780915F01BFDA2091EB001092E9007710
:10213000D02295269521702093F1001092F1005243
:10214000C0882311F08230A1F68F71823089F68029
:10215000915D018823D1F420915F01277049F2201D
:1021600093E9008091EB0080FF10C0933011F48060
:10217000E20BC080E155DF81E0880F2A95E9F78006
:1021800093EA001092EA0088E04BDF1092E90047E2
:10219000D02AC0882391F410915D0110680FB7F820
:1021A000943ED050DF1ADF80FFFDCF1093E3001084
:1021B0003883E009F482E08EBB0FBF2CC0805882C8
:1021C0003048F580915D0190915E0130DF60301103
:1021D000F126D049DF1FC08038E9F421D080915327
:1021E000018093F100F1DE2EDF15C0882399F49071
:1021F000915D01923078F49093530111D023DF80E8
:10220000915301882321F48091E30091E087FD94AC
:10221000E09EBBEFDEE2DE83FF089580E201DF8710
:10222000EFD4CE8EB388230895A3E6B1E0F437B897
:10223000F40ED090E40D901D9081E087BFE89532B8
:10224000969A95C1F71124E058F04085E001C083CB
:10225000E001D081E187BFE89507B600FCFDCF081B
:10226000950300FD3F3137D9CFFBDC000011241F5F
:10227000BECFE5D1E0DEBFCDBF70D1A6C1FAC99017
:10228000E09AEF00009A95E9F78A95D1F7089588CA
:10229000B38A7F88BB87B38A7F87BBBC9808959831
:1022A000E087FF09C0C09A880FC29AB1998F5FC2B8
:1022B000989150B1F70895C098F6CF1F93CF93DF50
:1022C00093D82F162F892FEBDF8D2FE9DF80E0E7E2
:1022D000DFC82F812FE4DFD33509F0C82F8C2FDF23
:1022E00091CF911F91089560E088E090E5E6CF607E
:1022F000E088E098E5E2CF60E080E090E5DECFCFD7
:1023000093DF93EC018CE4CBDF8D2FC9DF8C2FC7DB
:10231000DF80E0C5DF60E080E090EFCFDF80FDFA96
:10232000CFDF91CF910895CF9388B38A7F88BB8701
:10233000B3856087BBCAE0C49ABC9A81E0A0DFC4C1
:102340009884E19DDF60E083E59CEAB7DF8335296F
:10235000F0C15089F79CDF80E001C081E0CF910897
:1023600095CF93ABDFC82F60E080E090EFA6DF80D1
:10237000FDFACF8C2FCF9108955F926F927F928F4D
:10238000929F92AF92BF92CF92DF92EF92FF920F05
:10239000931F93CF93DF9360E080E098E58EDF801A
:1023A0006CC0E08F3F29F060E080E89CEAD9DFC193
:1023B000E082E496E08F3F910521F06FEF80EA9C88
:1023C000EACFDF8EE396E0823D910521F062ED8851
:1023D000EA9CEAC6DF8AE396E08B3C910521F06B2C
:1023E000EC84EA9CEABDDFC11104C060E080E89C97
:1023F000EAB7DF2EE1C22E20E0D22EF60184910F43
:10240000E110E0F801A490BA2CA82E30E4732EC09D
:10241000E2D0E048E0642EA114B10409F43CC0FE0F
:102420000184917E01F2E0EF0EF11C2196FE01C4C1
:1024300091DC2FC82F572C872D32DF8D2F30DF8C6A
:102440002F2EDF4701FFEF8F1A9F0AF70184912794
:10245000DF73FE07C0CE018F739927CF9711F4CE9B
:10246000014EDF762453FE15C02196F1E0AF1AB17C
:102470000881F4CE018F739927892B11F0CE013F8B
:10248000DFF401A490E7012396F70132968491B816
:102490002EC2CF7401CFCFF601C490F80104911081
:1024A0002F0C2D80E2D82EC0E2D0E098E0C92E019A
:1024B00015110561F1FE0184917E01F2E0EF0EF14C
:1024C0001C2196FE01C491DC2FC82FBD2C8D2DE759
:1024D000DE8D2FE5DE8C2FE3DE80E0E1DE97012F3D
:1024E0005F3F4FF7019491891324C0DC24B3FE0CA5
:1024F000C021960150110941F4F9010491E701232B
:102500009631968491182FD3CF7901DFCFE199FED0
:10251000CF1FBA1EBAE09A8DB3813B59F0982F9124
:102520007B913BB9F49EE4892790E29CBB8DBBE292
:102530009AE19ADF91CF911F910F91FF90EF90DF79
:1025400090CF90BF90AF909F908F907F906F905F53
:10255000909ECE90E081EBE9CF189517BA88E0887D
:10256000BB15BE8FE080BDE199FECF1FBA1EBAE059
:102570009A8DB38B3F29F484E182DED5DE8111FC94
:10258000DE00E180E2F82E90E3E92E05BBFBBEE51C
:10259000BE7894889515BE1BBED0E0C0E010E081E7
:1025A000E0B49906C06CDECF3FDC07C1F32196F69C
:1025B000CF66DE1F5F143198F3C03DD74030F3B3D0
:1025C000DE882319F3D9DEE1CFF894FFCF0000763F
:1025D0006572696679696E67204D6F64206368690A
:1025E0007000466C617368696E67204D6F6420638C
:1025F0006869700070FCFA3A4D754D3AFAFC70004B
:1026000001030207070702030100466C617368209B
:102610004D6F642063686970005072657373202089
:102620002020627574746F6E20746F00544F2044C4
:102630004F00484152445741524520444554414976
:102640004C5300466C6173682063686970206E6F3C
:102650007420666F756E642100204B420053697AC6
:10266000653A004A454445432049443A00464C41B6
:10267000534820434849502044455441494C530055
:102680004D6F6463686970206E6F7420666F756E3D
:102690006421004669726D77617265204352433A46
:1026A00000204C6F636B3A200045667573653A00F5
:1026B0002048667573653A004C667573653A00206C
:1026C0004545503A004D4F44204348495020444529
:1026D0005441494C5300207600426F6F744352437B
:1026E0003A00204C6F636B3A200048667573653A78
:1026F000002045667573653A004C667573653A004F
:10270000F8A8B8E000F848F800F8888800F830C861
:10271000000070FCFA0AD5D5CD3AFAFC7000000032
:1027200000000000000000000000000000000000A9
:1027300001030206060603030100008080808080FA
:10274000002A41800180412A008080808080000032
:102750000000000000000000000000000000000079
:1027600000000000000000001F3F3E3E3E3D1B8E6B
:1027700044201120448E1F3F3E3E3E311F00001773
:10278000151D001F1511001F1010001F1511001F2F
:10279000111100011F01000000000000000A1000DC
:1027A0001000100A000000000000000000000000FF
:1027B0000000000000000000000000000000000019
:1027C0000000000041524455424F592044455441B5
:1027D000494C53007F060C067F007F494941007F2A
:1027E00006187F003F40403F3E414979007E11116D
:1027F0007E007F060C067F007F494941E0F8F474B3
:102800009AEA9A74F4F8E0000054AA010201020165
:1028100002010201020102010201020102010201A0
:102820000201020102010201020102010201020190
:102830000201020102010201020102010201020180
:102840000201020102010201020102010201020170
:102850000201020102010201020102010201020160
:10286000AA54000307040E0E0E040703000000051F
:102870000A10081008100810081008100810081096
:102880000810081008100810081008100810081088
:102890000810081008100810081008100810081078
:1028A0000810081008100810081008100810081068
:1028B0000810081008100810081008100810081058
:1028C0000810081008100A050000000000000000B1
:1028D00000000000000000000000000000000000F8
:1028E000000000000000000000F80808F00008F8F0
:1028F0000800F04848F000F00848D000F830C0F870
:1029000000F00808F00030484890000808F808086F
:102910000008F80800F00808100000000008F80897
:1029200000F830C0F800F848480800F00808F00047
:102930000000000000000000000000000000000097
:102940000000000000000000000000000000000087
:102950000000000000000000000000000000000077
:10296000000000000000000000C3424281008243DA
:10297000428003C0000300C102C241404300C04383
:10298000408102C20100C102C2414080000300C078
:10299000000203C20041C242014040C0404203C2A3
:1029A0000003C00003000300000000010202010058
:1029B0000000000000000000000000000000000017
:1029C0000000000000000000000000000000000007
:1029D00000000000000000000000000000000000F7
:1029E0000000000000000000001F040403000F109E
:1029F000100F001F0C060C1F001F121210001F04E6
:102A00000C13000F10100F001F0404030000001F20
:102A10000C060C1F00101F100000001F0000001FFC
:102A200002021F0000000000000000000000000083
:102A30000000000000000000000000000000000096
:102A40000000000000000000000000000000000086
:102A50000000000000000000000000000000000076
:102A6000000000000000000000FE12120200FE80C4
:102A7000808000FC1212FC004C92926400FE101048
:102A8000FE00000000FE0C180CFE007C82827C0020
:102A9000FE82827C000000007C82824400FE1010D6
:102AA000FE0082FE8200FE22221C000000000000C8
:102AB0000000000000000000000000000000000016
:102AC0000000000000000000000000000000000006
:102AD00000000000000000000000000000000000F6
:102AE000000000000000000000F090901000F000D6
:102AF000000000E09090E0006090902000F0808066
:102B0000F000000000F090906000E01010E000E0A5
:102B10001010E0001010F0101000F000000000E0B5
:102B20001010E000E01010E000F01010E000F09055
:102B3000901000F01010E000000000000000000005
:102B4000000000000000000000000000000000F095
:102B5000F8E8E8E818F000000000000000000000BD
:102B60000000000000000000000700000000070453
:102B7000040400070000070002040403000700002B
:102B8000070000000007040403000304040300031B
:102B9000040403000000070000000704040400030D
:102BA00004040300070101070007040403000704ED
:102BB00004040007010304000000000000000000FE
:102BC0000000000000000000A80400040004885178
:102BD00023078F072351880400040004A80000B8CD
:102BE000A8E800F8A88800F8808000F8A88800F815
:102BF00088880008F80800000000000000000000BD
:102C000000000000000000000000000000000000C4
:102C100000000000000000000000000000000000B4
:102C20000000000000000000000000F8A8B8E0006C
:102C3000F848F800F8888800F830C8000070FCFAFE
:102C40000AD5D5CD3AFAFC70000100010001007CE4
:102C5000FEFFFDFBC67C000100010001000000003A
:102C60000000000000000000000000000000000064
:102C70000000000000000000000000000000000054
:102C80000000000000000000000000000000000044
:102C90000000000000000000000000000000000034
:102CA0000000000000000000000000000000000024
:102CB0000000000000000000000000000000010310
:102CC00002060606030301004163361C1C366341FD
:102CD000040C38703C0E030100000000000000F0FE
:102CE000F89C8E8783878E9CF8F00000FEFF03031C
:102CF000030303070EFCF80000FEFF0303030303B6
:102D0000070EFCF80000FFFF00000000000000FFBD
:102D1000FF0000FEFF8383838383C7EE7C380000BF
:102D2000F8FC0E07030303070EFCF800003F7FE0EA
:102D3000C08080C0E07F3F000018DCFCFCFEDECEDF
:102D4000C74767637BBBF3E0E0E0F0783C3E1E0FD3
:102D5000070200000000000000000000000000FF6B
:102D6000FF01010101010101FFFF0000FFFF0C0C49
:102D70000C0C1C3E77E3C100007FFFC0C0C0C0C088
:102D8000E0703F1F00001F3F70E0C0C0C0E0703F18
:102D90001F00007FFFC1C1C1C1C1E3773E1C00001D
:102DA0001F3F70E0C0C0C0E0703F1F000000000087
:102DB00001FFFF01000000001C1F070101010000CE
:102DC000000406060703030161836303E6060200AD
:102DD000E000000000000000000000000000000013
:102DE00000000000000000000000000000000000E3
:102DF000000000000000000050A804C8E42824E8F7
:102E0000C408C4E824286448042824E8E4282408E2
:102E1000E4E804E8E40804E8E408C4E82428E4C892
:102E2000042824E8E4282408C4E82428E4C804E8A2
:102E3000E42824E8C40804A85000000000000000B2
:102E4000000000000000000000010000010001007F
:102E50000100000000000000000000000000000071
:102E60000000000000000000000000000000000062
:102E70000000000000000000152A402F4F23432FC0
:102E80004F20472F48284C244020402F4F204020DF
:102E90004F2F4023472C4C2743204F2F42224F2FA8
:102EA0004020402F4F204020472F48284F27402FB9
:102EB0004F22422F4D20402A150000000000000044
:102EC0000000000000000000000000000000000002
:102ED00000000000000000000000000000000000F2
:102EE00000000000000000000000000000000000E2
:102EF00000000000000000000000000000000000D2
:102F00000000000000000000000000007050D00031
:102F100010F01000F050F00010F01000F000F00081
:102F20007050D000A0000000000000000000000071
:102F30000000000000000000000000000000000091
:102F40000000000000000000000000000000000081
:102F50000000000000000000000000000000000071
:102F60000000000000000000000000000000000061
:102F70000000000000000000000000000000000051
:102F80000000F8306030F800F00808F001F9090896
:102F9000F0010000F108091000F94040F90109F8BA
:102FA0000901F9888870000000000000000000009E
:102FB0000000000000000000000000000000000011
:102FC000000000000000C040C040C000C040400001
:102FD000C08000C000C000C0000000000000000071
:102FE00000000000000000000000000000000000E1
:102FF00000000000000000000000000000E02020B1
:103000002000E300000003C02122C201C0232242AD
:1030100001E00000E1020201C023204003E00203BE
:10302000E20023E02000E02020C0000000000000BB
:103030000000000000000000000000000000000090
:103040000000000000000700010007804745A4A021
:10305000A7404187000704070000000000000000AF
:103060000000000000000000000000000000000060
:10307000000000000000000000000000000F01013F
:1030800000000F080808000F01010F0004090906DD
:10309000000F01010F00000007080804000F0101E4
:1030A0000F00080F08000F020201000000000000DE
:1030B0000000000000000000000000000000000010
:1030C000000000000000000000000E3F7F47E9EE16
:1030D000E9477F3F0E000000080B000202020000DB
:1030E000090400000102020000052400100105246B
:1030F00001010104240206052406000107058103DD
:1031000010004009040100020A0000000705020245
:103110004000000705830240000004030904120177
:103120000002EF0201404123368000010102030149
:1031300041726475696E6F204C4C43004172647536
:10314000626F7900672111241FBECFEFDAE0DEBF86
:10315000CDBF11E0A0E0B1E0EEE7F1E502C00590DF
:103160000D92A034B107D9F725E0A0E4B1E001C089
:103170001D92A33DB207E1F718E1C3EAD8E104C00C
:103180002197FE010E94B728C23AD107C9F70E94D1
:1031900098210C94BD280C9400009091C6059823AA
:1031A00029F49091C505982381E009F480E0089501
:1031B0004F925F926F927F928F929F92AF92BF9247
:1031C000CF92DF92EF92FF920F931F93CF93DF93F3
:1031D000802E912CF401E60FF71F1E161F060CF02F
:1031E0006BC0603471050CF067C030E0E62FE7700B
:1031F0007E2EE3E095948794EA95E1F7F3E07595E8
:103200006795FA95E1F7062E000C770BDB01B69572
:10321000BA2FAA27B795A795A80FB91FA459BE4FD3
:10322000EA0150E040E0E0E8F0E07F01E81AF90A46
:103230008A01060F171F083011050CF03DC00F3F23
:10324000FFEF1F077CF190E080E05D01E0E8AE0E4B
:10325000B11CFC01EC0FFD1FE491F0E02F01072CE5
:1032600002C0440C551C0A94E2F70F3F1007A9F165
:103270006D01C80ED91EF601608064286082772037
:1032800051F00730110539F06501C80ED91EF6015D
:103290006080652860820196821793071CF4E81607
:1032A000F906B9F64F5F5F4FA058BF4FC20FD31F4B
:1032B0008416950609F0BCCFDF91CF911F910F9135
:1032C000FF90EF90DF90CF90BF90AF909F908F9046
:1032D0007F906F905F904F9008957110D5CFDBCFA6
:1032E00090E0ECE6F1E091119FEF8FEF91939193D5
:1032F000919391938150D0F70895ECE6F1E0A0E02E
:10330000B8E000800EBC8111012C1197A0FDFDCF0B
:103310000192B9F70DB40895FC0180916B018823E7
:1033200011F13FB7F89482E08093E9002091F20018
:10333000822F90E01816190614F481E090E088239B
:1033400039F0289844E640936A014091F1004083A7
:10335000222339F02091F200211103C02BE62093A3
:10336000E8003FBF08958FEF9FEF08952FB7F894BF
:1033700083E08093E9009091E800892F807295FFA7
:1033800004C09091F20080E4891B2FBF08958091C2
:10339000620181110DC082E080935E0184E0809320
:1033A0005F01109261011092600181E080936201DF
:1033B0008EE591E00895CF93DF931F92CDB7DEB7EE
:1033C0006983DC01ED91FC910280F381E02D41E005
:1033D00050E0BE016F5F7F4F09950F90DF91CF9155
:1033E000089583E08093E9008091F200882319F02A
:1033F0008AE38093E80008950E94B61990E008954A
:10340000CF93DF931F92CDB7DEB7FC0184859585FE
:1034100097FD08C02FEF3FEF358724870F90DF918E
:10342000CF910895CE0101960E948C19019719F44D
:10343000898190E0F3CF8FEF9FEFF0CF0F931F9331
:10344000CF93DF931F92CDB7DEB78C01FC0184854B
:10345000958597FF0BC0CE0101960E948C190197AC
:1034600071F4898190E0F80195878487F80184855B
:1034700095850F90DF91CF911F910F9108958FEF58
:103480009FEFF1CFFC018485958597FD0BC09FB719
:10349000F89482E08093E9008091F2009FBF90E071
:1034A000019608959FB7F89482E08093E900809197
:1034B000F2009FBF90E0089540915801509159014A
:1034C000209156013091570142175307B4F490915F
:1034D000E8009570E1F39091E80092FD19C08093A7
:1034E000F100809158019091590101968F739927AD
:1034F000892B19F48EEF8093E80080915801909108
:1035000059010196909359018093580181E00895E3
:1035100080E00895DF92EF92FF920F931F93CF9375
:10352000DF93D82E8A01EB017B01E40EF51ECE1548
:10353000DF0559F0D7FE12C0FE0184910E945C1A8B
:1035400021968111F4CF0FEF1FEFC801DF91CF91CA
:103550001F910F91FF90EF90DF9008958881EECF3B
:103560000F931F93CF93DF931F92CDB7DEB782E007
:10357000898342E450E068ED70E380E80E948A1A93
:103580000E94C719DC0112960D911C9101151105BD
:1035900089F0D801ED91FC910280F381E02DBE010C
:1035A0006F5F7F4FC801099597FD04C0F801008542
:1035B0001185ECCF89810F90DF91CF911F910F91F1
:1035C0000895615030F02091F100FC0120830196B4
:1035D000F8CF289884E680936A0108950895AF9201
:1035E000BF92CF92DF92EF92FF920F931F93CF93F0
:1035F000DF936C017B018B01040F151FEB015E0152
:10360000AE18BF08C017D10759F06991D601ED91E6
:10361000FC910190F081E02DC6010995892B79F785
:10362000C501DF91CF911F910F91FF90EF90DF9037
:10363000CF90BF90AF9008952D9A08958FB1809547
:10364000807F669B88601C9B846008958EBD00000F
:103650000DB407FEFDCF8EB508952F923F924F9285
:103660005F926F927F928F929F92AF92BF92CF9212
:10367000DF92EF92FF920F931F93CF93DF93CDB71B
:10368000DEB72B970FB6F894DEBF0FBECDBF9C837D
:103690008B836A3061F5DC0155968C91B8E08B9F85
:1036A00090011124EB81FC8181899289820F931F03
:1036B000928B818B108A178681E090E02B960FB653
:1036C000F894DEBF0FBECDBFDF91CF911F910F9158
:1036D000FF90EF90DF90CF90BF90AF909F908F9032
:1036E0007F906F905F904F903F902F9008956D3036
:1036F00019F3AB81BC8155969C90559754965C907C
:1037000054975D8253964C9053975196ED90FC9050
:1037100052971F968D919C91092D10E0803891054C
:103720000CF084C020E4E216F1040CF07FC0E5E068
:103730009C019E9E200D311D1124121613060CF0C3
:1037400075C09801F3E0220F331FFA95E1F72E0DB3
:103750003F1D121613060CF069C06E9FF001112474
:10376000BF0164557F4F7F836E83AC01712CEE8166
:10377000FF812491F5E07F1201C020E0670178E02D
:10378000672E222E312C842C20FF8D80811004C0C6
:103790005D80541409F437C09A012983622F641B99
:1037A000691508F030C01B861A866A85691540F5D0
:1037B00020383105F0F4AA84BB84AC0CBD1C70E445
:1037C000A716B104B0F4F50170E1598061E0E1FDA4
:1037D00064E0E0FD660FE2FD6295E87F7E9FD00128
:1037E0001124A50DA459BE4F0C90062A80FE062672
:1037F0000C926A857B856F5F7F4F7B876A87D5CF09
:103800002F5F3F4FCACF9101359527956A94C00E1F
:10381000D11E6110B6CF7394EE81FF813196FF8384
:10382000EE83400F511FF6E07F12A1CF26E0929E5B
:10383000800D911D1124AB81BC8150969C938E9379
:103840001F9756962C915697222309F435CF4AEFAD
:1038500040039001419F300D112420583F4F2817FD
:1038600039070CF029CFCD01ED91FC910190F08149
:10387000E02D6AE0099520CF0F931F93CF93DF933C
:103880008C01D0E0C0E0F801EC0FFD1F64916623CD
:1038900041F08CEB95E00E942D1B892B11F02196B5
:1038A000F2CFCE01DF91CF911F910F910895682F34
:1038B0008CEB95E00C942D1B0895089590E080E02A
:1038C00008959FB7F89429E027BFE82FF0E084918E
:1038D0009FBF089559988BEA0E94261B599A5998C0
:1038E0008FE90E94261B80E00E94261B80934D01D9
:1038F00080E00E94261B80934E0180E00E94261BE0
:1039000080934F01599A81E090914D019F3E09F0BB
:1039100080E008955098809147018CBD80914601C8
:103920008DBD0895282F9EBD0DB407FEFDCF2EBD81
:103930000DB407FEFDCF80E0903311F4862F60E0D8
:103940008EBD0DB407FEFDCF8EB56EBD0DB407FE66
:10395000FDCF233509F08EB5089560E00C94921CDC
:103960002CE42EBD0DB407FEFDCF9EBD0DB407FEA9
:10397000FDCF8EBD0DB407FEFDCF1EBC0DB407FEFE
:10398000FDCF80E090EF0E94AD1C80FDFACF08953E
:10399000FC010E94881D319728F068517C4F8F4FA1
:1039A0009F4FF9CFAB01FC010E94881D641775077A
:1039B0008E079F07C8F308958F929F92AF92BF9290
:1039C000CF92DF92EF92FF920F931F93CF93DF93EB
:1039D0006C017B018A0180910B01882309F45AC094
:1039E00080916B01882309F455C080915D0180FFAF
:1039F00005C08091E00082608093E000E801B12C76
:103A00008AEFA82E93E0892E2AE3922E209711F4B4
:103A1000BB20C9F10E94B619811108C0AA94AA203E
:103A2000C9F181E090E00E94C81CF0CF8C171D0600
:103A300011F00CF08C2F9FB7F8948092E900209140
:103A4000E80025FD02C09FBFE1CF282F30E0C21B58
:103A5000D30BF701815020F041914093F100FACF50
:103A6000E20EF31EBB2021F09092E800B12CEBCFC8
:103A70008091E80085FDE7CF9092E800BB24B394E5
:103A8000209709F3F3CF5D9884E680935C011016CC
:103A900011063CF081E090E0F6019383828310E010
:103AA00000E0C801DF91CF911F910F91FF90EF903F
:103AB000DF90CF90BF90AF909F908F90089590E04F
:103AC0000C94C81CCF938CB58093470183E58CBDC3
:103AD0008DB58093460181E08DBDCAE0589A509A19
:103AE00081E090E00E94C81C589884E190E00E9418
:103AF000C81C83E59CEA0E94AD1C833531F0C1509F
:103B000069F70E948A1C80E001C081E0CF9108958E
:103B1000A2E4B1E02FB7F8947D918D919C9166B5A8
:103B20002FBFA89B05C06F3F18F47F5F8F4F9F4F3B
:103B300022E0660F771F881F991F2A95D1F70895F5
:103B40008F929F92AF92BF920F931F93CF93DF9369
:103B5000CDB7DEB7A1970FB6F894DEBF0FBECDBFCD
:103B600019A2423008F44AE08E010F5D1F4F842EE7
:103B7000912CB12CA12CA50194010E949528E62F2F
:103B8000B901CA01EA3044F5E05DD801EE938D0138
:103B9000232B242B252B79F790E080E0109769F0F8
:103BA000FD0101900020E9F73197AF014A1B5B0B43
:103BB000BD018CEB95E00E94EF1AA1960FB6F89428
:103BC000DEBF0FBECDBFDF91CF911F910F91BF9090
:103BD000AF909F908F900895E95CD7CFCF93C82F77
:103BE000803140F441E050E069E371E08CEB95E016
:103BF0000E94EF1A6C2F70E090E080E040E1CF91DE
:103C00000C94A01D0C947F281F920F920FB60F9258
:103C100011248F939F938091E1009091E100937F15
:103C20009093E10083FF0FC01092E90091E0909320
:103C3000EB001092EC0092E39093ED0010926B0178
:103C400098E09093F00082FF22C093E09093E90007
:103C50009091F200992319F09AE39093E8009091E3
:103C60005C01992341F090915C01915090935C012B
:103C7000911101C05D9A90916A01992341F0909150
:103C80006A01915090936A01911101C0289A84FFB2
:103C900018C08091E2008E7E81608093E200809166
:103CA000E1008F7E8093E10080915D018E7E8061D6
:103CB00080935D019F918F910F900FBE0F901F9089
:103CC000189580FFF7CF8091E2008E7E806180930F
:103CD000E2008091E1008E7E8093E10080915D01A1
:103CE0008E7E8160E5CF1F920F920FB60F92112446
:103CF000CF92DF92EF92FF920F931F932F933F93F8
:103D00004F935F936F937F938F939F93AF93BF93E3
:103D1000EF93FF93CF93DF93CDB7DEB76C97DEBF02
:103D2000CDBF1092E9008091E80083FF25C068E0D4
:103D3000CE0145960E94E11A82EF8093E8008D89BA
:103D400087FF39C09091E80090FFFCCF982F9076C4
:103D500009F034C19E894F89588D2F89F88C9111B3
:103D600031C0803861F580915B018093F100109241
:103D7000F1008EEF8093E8006C960FB6F894DEBFEA
:103D80000FBECDBFDF91CF91FF91EF91BF91AF916A
:103D90009F918F917F916F915F914F913F912F9163
:103DA0001F910F91FF90EF90DF90CF900F900FBE7B
:103DB0000F901F9018959EEF9093E800C7CF109238
:103DC000F100D5CF913059F48111D3CF4130510555
:103DD00081F680915B018D7F80935B01CACF933028
:103DE00049F48111C6CF4130510519F680915B012C
:103DF0008260F2CF953041F48091E80080FFFCCFE3
:103E000020682093E300B5CF963009F0A9C00B8D50
:103E10001C8D22E01092E900109259011092580175
:103E2000F2122EC010925701109256010E94B01A41
:103E30001F8299E09983FA8291E09E8390EA9887A5
:103E40009AEF99872091580130915901275F3F4F90
:103E50003C832B838D831092E900109259011092BC
:103E60005801109357010093560149E050E0BE01FC
:103E70006F5F7F4F80E00E948A1A0E94B01A79CF4C
:103E800010935701009356010E94C719DC01129646
:103E90000D911C910115110509F451C1D801ED9145
:103EA000FC910480F581E02DBE016B5E7F4FC8015F
:103EB0000995009709F03EC1F80100851185EACF08
:103EC000F3E0FF120EC08F89882309F440C08230CE
:103ED00061F440E867E08CE391E30E94EF208111F8
:103EE00048CF81E28093EB0047CF813029F440E84E
:103EF0006BE080E391E3F1CF833099F70E94C7191B
:103F0000DC011296ED90FC908E010F5F1F4F68014F
:103F1000E114F10479F0D701ED91FC910680F7816D
:103F2000E02DB801C7010995080F111DF701E084C4
:103F3000F184EECFD8011C92F60101900020E9F740
:103F40003197BF016C197D0940E0C601C6CF6AE117
:103F500071E3FB01449150E080E80E948A1A09CF86
:103F6000973009F4BECF983021F481E08093F100BE
:103F700000CF993009F0FDCE837009F0B2CFEDE0AB
:103F8000F1E081E031E096E32191222371F080930A
:103F9000E9003093EB00DF0111972C912093EC00A6
:103FA0009093ED008F5F873079F78EE78093EA007A
:103FB0001092EA008F8980936B01DBCE8B8D9C8DF4
:103FC0001092E900109259011092580190935701F4
:103FD00080935601898D811192C08E899D89913A75
:103FE00049F4813209F07DCF47E050E064E071E0B0
:103FF00080E0B3CF913209F074CF833269F48F89B6
:10400000988DB0E0A0E08093000190930101A0930F
:104010000201B0930301ADCE803269F48091E800D3
:1040200082FFFCCF67E084E091E00E94E11A8BEF11
:104030008093E8009ECE823209F09BCE8F898093D8
:104040000B01EEEFFFE7859194918B3F9C4D51F171
:10405000E0E0F8E08091040190910501A091060153
:10406000B0910701803B9440A105B105F1F4809126
:104070000B0180FD1AC0EE3F8AE0F80789F587E75B
:1040800097E7918380838091600080935A0188E153
:104090009BE00FB6F894A895809360000FBE9093B4
:1040A000600067CEEEEFFAE0D5CF8081918187374F
:1040B000974709F05ECEA895809160008861809353
:1040C000600080915A0180936000EE3F2AE0F20781
:1040D00089F08091FE0A9091FF0A9183808349CEF6
:1040E000808191818737980751F29093FF0A8093DE
:1040F000FE0AC5CF1092FF0A1092FE0A3ACE0E9425
:10410000C719DC0112960D911C910115110509F4D6
:10411000E8CED801ED91FC910190F081E02DBE0137
:104120006B5E7F4FC8010995811123CEF801008590
:104130001185EBCF181619060CF41BCED2CEF1E088
:10414000FF12BECE6EE171E304CF0F920FB68F93D4
:104150009F93EF93FF93809141018D5F8D3708F01E
:104160008D5780934101E8E4F1E080818E4F808398
:1041700091819F4F918382818F4F828383818F4F63
:104180008383E2E4F1E080818F5F808381818F4FC0
:10419000818382818F4F828383818F4F83838FB10D
:1041A0008F6066991C9B88278F3681F4809140012F
:1041B000981B963068F0E0E0F8E087E78083818321
:1041C00088E180936000F0936000FFCF90934001FE
:1041D000FF91EF919F918F910FBE0F901895EF92E5
:1041E000FF920F931F93CF93DF93F82E192FE62E94
:1041F000042F81E0860F880F0E945C1A83E00E94E2
:104200005C1ACF2DD12FEC0EFD2EF11CCE15DF0543
:10421000B9F007FF13C0FE0184910E945C1A182FA9
:1042200080E00E945C1A812321968111EFCFDF91FB
:10423000CF911F910F91FF90EF9008958881EDCF5E
:1042400081E0F5CF0F931F93CF93DF938C0181E033
:1042500090E00E94021E80FF32C08AE090E00E943F
:10426000021E9FEF980F9E3F50F522E330E0D801E9
:1042700050963C932E931F9728E330E052963C9340
:104280002E935197CBE0D0E0D801ED91FC910190B5
:10429000F081E02D682FC8010995CE010E94021E11
:1042A0002196C131D10581F780E00E947D1988EE09
:1042B00093E0DF91CF911F910F910C94C81CDF9177
:1042C000CF911F910F91089504970C942221ECE651
:1042D000F5E01382128288EE93E0A0E0B0E08483E0
:1042E0009583A683B78387E191E0918380838FEFE5
:1042F0009FEF95878487ECEBF5E01382128211869D
:10430000128680E1838710861782158689E291E004
:104310009183808387E391E095838483108A178655
:10432000128A118A81E0838B148A858B168A0895FC
:1043300000D000D0CDB7DEB7789483E084BD83E0B1
:1043400085BD81E080936E00E1E8F0E083E080834A
:10435000E0E881E08083E1E983E08083E0E981E0D7
:104360008083E1EC87E08083E3EC81E08083E0EC14
:1043700082E08083E2EC81E08083EAE787E080836B
:104380008068808310926B0110925B0110925D0136
:104390008091D70081608093D70080EA8093D80015
:1043A00089B5806189BD89B5826089BD09B400FE87
:1043B000FDCF81E090E00E94C81C8091D8008F7CE6
:1043C00080618093D8008091E000807F8093E0003E
:1043D0008091E1008E7E8093E1008DE08093E20089
:1043E000559A209A81EC80937C0081EF85B987EE05
:1043F00084B982E38BB982EF8AB9769A6E9880EF9E
:1044000081BB10BA80E58CBD21E02DBD85E00E9406
:104410005F1D5F9A85E00E945F1D5C98ECE5F6E009
:1044200085910E94261BE936D9F75C9A81E8809332
:10443000640031E03093650081E00E947D190E94A4
:104440001E1B87FF12C05C9885EA0E94261B5C9A9F
:104450002E982F982D98809164008062809364003C
:1044600081E083BF889513BEFCCF0E941E1B82FF94
:1044700045C02D980E941E1B84788438D9F40E9470
:104480001C1B88EC0E945F1D2F9882E090E00E9428
:104490007F288F3F29F06FEF82E090E00E9487280D
:1044A00084EF91E00E94C81C2F9A0E941E1B847802
:1044B0008438D9F30E941E1B84718431D9F40E9480
:1044C0001C1B88EC0E945F1D2E9882E090E00E94E9
:1044D0007F28882329F060E082E090E00E9487280E
:1044E00084EF91E00E94C81C2E9A0E941E1B8471CA
:1044F0008431D9F388EC0E945F1DB7CF0E941C1B4A
:1045000082E090E00E94021E882309F44FC03E9A88
:104510003F9A81E090E00E94021E182F147081FFE4
:104520000EC011112E9840EF5FEF5A8349830E940D
:104530001E1B86FF3EC02E9A2F9A0E941C1B82E3F0
:104540000E945F1D0E941E1B8111F9CF0E947019ED
:104550001092CE051092CD051092CC051092CB058D
:10456000599A519A5E9AF0E1EF2EF12CACE1CA2EE5
:10457000D12CB6E16B2E712CEAE08E2E912C90910D
:1045800048018091C805F92FF81B8F2F2091C9058C
:10459000222309F440C0F093CA051092C90580E0B7
:1045A00090E0892B61F30E940000E6CF3E983F988F
:1045B000B0CF112331F089819A81049711F42E9A9A
:1045C0002F9881E00E947D1900E128E54CEA55E032
:1045D00069817A8184E190E00E94D81880E00E948D
:1045E0007D198FE00E945F1DE981FA813196FA837F
:1045F000E983799709F09BCF112311F02F9A2D9819
:1046000080E991E00E94C81C0E941C1B8CEB95E085
:104610000E94222194CF2091C705F21748F48F5FA2
:10462000821708F0BCCF81E083BF889513BEB7CF57
:104630009093C805E3ECF5E0808191810196808339
:10464000918381E08093C9058091C5058093C6055B
:104650000E941E1B8093C5050E9470191092CE0502
:104660001092CD051092CC051092CB05E09155012A
:10467000E83008F09CC0F0E0E05CFC4D0C94B728FA
:1046800048237E23E523A824C02548267826B3277F
:1046900000E420E848ED5CE270E060E090E080E05B
:1046A0000E94D8180E94621D08E028E048EC5CE2F5
:1046B000882331F00E948A1C08E028E040ED5CE28B
:1046C0006BE270E080E590E00E94D8180E946A1CBE
:1046D00008E028E040ED5CE2811102C048EC5CE2B9
:1046E00065E370E084E590E00E94D81888E00E94BD
:1046F000CD18882309F45BC081E01FC100E420E8E5
:1047000048EC58E270E060E090E080E00E94D81849
:104710002091540129833BE0239FB001112400E143
:1047200026E64CEF57E280E190E00E94D8184091D5
:1047300053014B8308E024E1442351F148EE57E252
:104740006EE070E08EE590E00E94D81880E10E9453
:10475000CD18882329F059815F5F5370509354011D
:1047600080E80E94CD18882331F080915401815057
:1047700083708093540188E00E94CD18882389F0CB
:1047800080915401811107C082E08093550109C0D6
:1047900044ED57E2D5CF813081F49B8198279093E7
:1047A000530184E00E94CD188111109255015E984A
:1047B00080E00E947D195E9AF2CE823011F486E08C
:1047C000E4CF833071F787E0E0CF83E190E090930E
:1047D000CC058093CB0584EC97E20E943C1C08E159
:1047E0002EE24AE357E26BE270E090E080E00E9444
:1047F000D81800E12DE140E057E260E370E083E685
:1048000090E00E94D818F092CC05E092CB058BE0A6
:1048100090E09093CE058093CD0589EF96E20E94BB
:104820003C1C80E00E94611C0E94EE1D81EF96E21C
:104830000E943C1C82E00E94611C0E94EE1DF092CE
:10484000CC05E092CB057092CE056092CD0583E059
:104850000E94611C89838AEE96E20E943C1C898139
:104860000E94EE1D82EE96E20E943C1C81E00E94B6
:10487000611C0E94EE1DF092CC05E092CB0581E216
:1048800090E09093CE058093CD0589ED96E20E944D
:104890003C1CE981E67090E084E7E23009F080E7B3
:1048A000E92FF82F2FEF3FEF3A8329838491398145
:1048B000832740E1849F900111248227282F30E034
:1048C00049815A81452F5527582BC90164E0959598
:1048D00087956A95E1F773E0220F331F7A95E1F728
:1048E00028273927422753275A8349833196F7FFD0
:1048F000DDCF8A810E94EE1D89810E94EE1DEAEFC4
:10490000FFE754915B83EBEFFFE784918983852375
:104910008F3F69F086ED96E20E943C1C8B810E94DD
:10492000571C8EE20E94571C89810E94571C80E20E
:104930000E94CD18882321F084E08093550137CF61
:1049400080E40E94CD18882309F418C183E0F5CFD4
:10495000F092CC05E092CB0585EC96E20E943C1CDF
:1049600008E12EE24AE357E26BE270E090E080E07B
:104970000E94D81800E12DE140E057E260E370E0CA
:1049800083E690E00E94D8180E94621D882309F4F3
:10499000E1C0F092CC05E092CB058BE090E09093E3
:1049A000CE058093CD0544E050E06BE371E08CEBE5
:1049B00095E00E94EF1A60E080E090E30E94921C74
:1049C0000E94EE1D61E080E090E30E94921C0E9434
:1049D000EE1D62E080E090E30E94921C0E94EE1DBA
:1049E0008FEB96E20E943C1C80E090EA0E94AD1C96
:1049F0000E94EE1DF092CC05E092CB0583E190E0A1
:104A00009093CE058093CD0588EB96E20E943C1CE6
:104A100080E090E50E94AD1C0E94EE1D80EB96E2C6
:104A20000E943C1C88E098E50E94AD1C0E94EE1D8F
:104A3000F092CC05E092CB058BE190E09093CE050F
:104A40008093CD0589EA96E20E943C1C88E090E5BF
:104A50000E94AD1C0E94EE1D81EA96E20E943C1C61
:104A600080E098E50E94AD1C0E94EE1D80915201ED
:104A7000811129C081E080935201809152018230DE
:104A8000C1F4F092CC05E092CB0583E290E09093E4
:104A9000CE058093CD0583E996E20E943C1CE0910F
:104AA0005001E983809151010E94EE1D89810E948D
:104AB000EE1D0E948A1C80E20E94CD18882309F412
:104AC00058C082E03ACF8130C1F6EFEFFFEF30E01F
:104AD00020E0A0E260E078E001C0A82FAEBD0DB4F8
:104AE00007FEFDCF3EBD0DB407FEFDCF2EBD0DB4BC
:104AF00007FEFDCF1EBC0DB407FEFDCF8EB58E2781
:104B000090E1899FA00111248427482F50E0EF2FC6
:104B1000FF27F82BCA01B4E095958795BA95E1F780
:104B200013E0440F551F1A95E1F748275927E4274A
:104B3000F52788E08A27A3FFD0CF2F5F3F4F615032
:104B4000710959F6F0935101E0935001809152019F
:104B50008F5F91CF9092CC058092CB05D092CE05FD
:104B6000C092CD0580E896E20E943C1C1092520152
:104B7000A2CF80E40E94CD188111DECE84E0B7CDB3
:104B80009092CC058092CB058DE696E20E943C1C6B
:104B900008E12EE24AE357E26BE270E090E080E049
:104BA0000E94D81800E12DE140E057E260E370E098
:104BB00083E690E00E94D8180E946A1C882309F4BA
:104BC0005AC083E190E09093CC058093CB0570921E
:104BD000CE056092CD0583E696E20E943C1C809152
:104BE0004D010E94EE1D80914E010E94EE1D8091AC
:104BF0004F010E94EE1D89E190E09093CC058093D7
:104C0000CB0522E230E03093CE052093CD058DE533
:104C100096E20E943C1C80914F018A50990B61E002
:104C200070E002C0660F771F8A95E2F71B01770FCD
:104C3000440855084AE0C201B10157FE0BC08DE29D
:104C40000E94571C66277727CB01621973098409D4
:104C500095094AE00E94A01D89E596E20E943C1C4D
:104C600080E20E94CD18811171CE80E40E94CD189F
:104C7000811127CF83CF81E090E09093CC05809382
:104C8000CB05D092CE05C092CD0583E496E2E6CF67
:104C9000F092CC05E092CB0582E396E20E943C1CA8
:104CA00008E12EE24AE357E26BE270E090E080E038
:104CB0000E94D81800E12DE140E057E260E370E087
:104CC00083E690E00E94D81881E390E09093CC05B1
:104CD0008093CB05D092CE05C092CD058CE296E2B2
:104CE0000E943C1C80E20E94CD18811125CEBDCFD0
:104CF00080914C01811133C09092CC058092CB05FC
:104D00007092CE056092CD0589E196E20E943C1C2E
:104D10009092CC058092CB0542E250E05093CE05B4
:104D20004093CD058AE096E20E943C1C00E12BE016
:104D300044EF55E264E170E08EE290E00E94D81802
:104D40002DE140E057E260E370E083E690E00E94EE
:104D5000D81888E00E94CD18811117C00FCF81307C
:104D6000E1F40E94621D8823A1F00E948A1C8DE05C
:104D700090E09093CC058093CB05D092CE05C09265
:104D8000CD0582EE95E20E943C1C80914C018F5F24
:104D900001C086E080934C010ACD823009F091C0B9
:104DA0000E94621D882389F360E080E89CEA0E94EB
:104DB000921C80E090EF0E94AD1C80FDFACF8091A4
:104DC0005301E1E1F7E0882311F0EFE6F6E1049109
:104DD000CF0102969A8389833196E4911E2F80E455
:104DE000482E0115110509F45DC0E981FA8184910D
:104DF0005F01F2E0AF0EB11C29813A812F5F3F4F76
:104E0000F901F4913F2F282F3C832B83542C4EBC67
:104E10000DB407FEFDCF4C814EBD0DB407FEFDCF96
:104E20005B815EBD0DB407FEFDCFC50101969A837F
:104E30008983F50184918EBD0DB407FEFDCF43FE3D
:104E40000AC08B819C818F7199274F9721F48B81A8
:104E50009C810E94B01CF8E04F2653FE20C02B819D
:104E60003C812F5F3F4F3C832B8301501109B9F4E4
:104E7000C9018F719927892B19F0C9010E94B01CB3
:104E8000E981FA81049195012D5F3F4F3A8329838F
:104E900032E0A30EB11CF501A4901A2DA2CFA98077
:104EA000BA80B4CF0E948A1C109252019092CC0515
:104EB0008092CB05D092CE05C092CD058FEC95E2C5
:104EC00062CF833009F0E2C00E94621D882309F49A
:104ED000D8C080915301E1E1F7E0882311F0EFE6BB
:104EE000F6E184919F012E5F3F4F3196E4919E2F12
:104EF000A0E2009709F4BEC0F9016491A9014E5FD8
:104F00005F4F2F5F3F4FF9012491322F262FBA2F89
:104F1000AEBD0DB407FEFDCF3EBD0DB407FEFDCF07
:104F20002EBD0DB407FEFDCF1EBC0DB407FEFDCF98
:104F3000BA016F5F7F4FFA011491EEB51E139FC047
:104F4000F8E0AF27B3FF0DC02F5F3F4F019749F443
:104F5000FB0184919A012D5F3F4F3196E4919E2F82
:104F6000C8CFAB01D4CF80914C01811119C0909270
:104F7000CC058092CB057092CE056092CD058DEC6C
:104F800096E00E943C1C9092CC058092CB0522E2D8
:104F900030E03093CE052093CD058CEB96E0C4CE67
:104FA0008330E9F447E050E05093CC054093CB05C3
:104FB0007092CE056092CD0588EA96E00E943C1C76
:104FC0008BE290E09093CC058093CB05E2E2F0E099
:104FD000F093CE05E093CD0580EA96E085C027E00A
:104FE00030E03093CC052093CB05F092CE05E092D3
:104FF000CD058CE896E00E943C1C47E050E05093C1
:10500000CC054093CB05D092CE05C092CD0588E764
:1050100096E00E943C1C87E090E09093CC05809342
:10502000CB05E8E2F0E0F093CE05E093CD0589E60C
:1050300096E00E943C1CF0914C01F983F230A9F4F7
:105040000E94621D882389F06BEF80E090EC0E9443
:10505000921C80E090EF0E94AD1C80FDFACF0E9470
:105060008A1C84EF91E00E94C81C29812F5F209345
:105070004C019DCB80914C018F5F80934C010E942D
:105080008A1C80914C018F5F80934C0180914C0170
:10509000843061F47092CC056092CB05D092CE053D
:1050A000C092CD0582E097E00E943C1C80914C01AB
:1050B000853061F47092CC056092CB05D092CE051C
:1050C000C092CD0583EF96E00E943C1C80914C017C
:1050D000863061F49092CC058092CB05D092CE05BB
:1050E000C092CD0580EE96E00E943C1C8CE00E94B0
:1050F000CD18882309F45BCB10924C01FDCAF999B5
:10510000FECF92BD81BDF89A992780B50895262FCC
:10511000F999FECF1FBA92BD81BD20BD0FB6F8949C
:10512000FA9AF99A0FBE01960895A1E21A2EAA1BC7
:10513000BB1BFD010DC0AA1FBB1FEE1FFF1FA21747
:10514000B307E407F50720F0A21BB30BE40BF50B44
:10515000661F771F881F991F1A9469F760957095CD
:10516000809590959B01AC01BD01CF010895EE0F94
:0E517000FF1F0590F491E02D0994F894FFCFF5
:10517E00FFFFFFFF00E100000000000000C1808182
:10518E0000000000000000DB19DC1CFC19F11942C4
:10519E001A001A1E1A000000002D1BEF1A5E1C5D6D
:1051AE001C2221FCFF0000642130004465763A0089
:00000001FF
